:020000040800F2
:10000000580900203D020008D17400089D5F0008D7
:10001000CD740008911A0008697B000800000000F8
:1000200000000000000000000000000081780008CF
:10003000C11F00080000000041750008D9780008C1
:10004000570200085702000857020008570200082C
:10005000570200085702000857020008FD21000857
:10006000092200081522000821220008611F00084B
:1000700057020008570200085702000857020008FC
:1000800057020008570200085702000857020008EC
:1000900057020008570200085702000857020008DC
:1000A00057020008570200085702000857020008CC
:1000B00057020008570200085702000857020008BC
:1000C00057020008570200085702000857020008AC
:1000D000570200085702000857020008570200089C
:1000E000F1210008570200085702000800F002F84A
:1000F00000F094F80AA090E8000C82448344AAF12E
:100100000107DA4501D100F089F8AFF2090EBAE82B
:100110000F0013F0010F18BFFB1A43F0010318473B
:100120001CA200003CA20000103A24BF78C878C18D
:10013000FAD8520724BF30C830C144BF04680C60ED
:10014000704700000023002400250026103A28BF35
:1001500078C1FBD8520728BF30C148BF0B60704739
:100160006E2900F07582702900F0B783662909F0C6
:100170008687652909F08387672909F080876129C7
:1001800009F07F8703681B0A28BF41F080016929B5
:1001900000F02282642900F01F82752900F01C8281
:1001A0006F2900F04583782900F08383E92900F066
:1001B000DF82E42900F0DC82F52900F0D982EF2902
:1001C00000F04283F82900F082830368DB0928BF2E
:1001D00041F08001632901F0C780732901F0CC80D0
:1001E000E32901F0D780F32901F0DC80002070477B
:1001F0001FB59DE8030000F025F901F031F9040076
:100200000020002109F018F9401C60600020002146
:1002100009F0FCF8E0601FBD10B510BD01F0F2F868
:100220001146FFF7E5FF07F04BFE01F0CFF903B4ED
:10023000FFF7F2FF03BC01F0FFF900000948804717
:1002400009480047FEE7FEE7FEE7FEE7FEE7FEE7B8
:10025000FEE7FEE7FEE7FEE704480549054A064BD0
:100260007047000071790008ED0000085803002075
:1002700058090020580500205805002070B5A0FB43
:100280000140B4F1805170F1000024BF002070BD26
:10029000204600F007F805001CBF214600F0ECFBEB
:1002A000284670BD70B5064600F0B0F8056806F146
:1002B0000B0020F00704B4429CBF002070BD2B4609
:1002C0006A68BAB11068A04210D304F108018842EC
:1002D0003CBF5068586007D35168101941601168DD
:1002E000091B016058601460101D70BD13465268F0
:1002F000002AE7D12146284600F090F80028DED1F8
:1003000070BD00000FB41CB5084B06AA7B446946BB
:100310000090059800F0B5F904460020694600F009
:10032000C3F920461CBC5DF814FB000099030000D3
:1003300040EA0103024630B59B0710D14FF001346B
:1003400000E008C208C91D1B9D4315EAC41FF8D070
:1003500013F0FF0102F8011B0DD01B0AF8E711F89A
:10036000013B002B02F8013B05D011F8013B002BAB
:1003700002F8013BF3D130BD10B5431C02E010F888
:10038000011B71B18107FAD14FF0013202C88C1AFA
:100390008C4314EAC211F9D0C01A0A0603D0C01E59
:1003A00010BDC01A10BD0A0401D0801E10BD090284
:1003B000FCD0401E10BD4FF0000200B5134694461D
:1003C0009646203922BFA0E80C50A0E80C50B1F1AD
:1003D0002001BFF4F7AF090728BFA0E80C5048BFC1
:1003E0000CC05DF804EB890028BF40F8042B08BF5F
:1003F000704748BF20F8022B11F0804F18BF00F85B
:10040000012B7047704770477047000000487047E5
:1004100020000020704770477047704738B5044689
:100420000A4600206946AFF30080002808BF38BDA7
:1004300002460099204600F049FB012038BD01200A
:1004400000F0D8BFF8B5AFF30080054600200C4699
:10045000102000BF0646A819A0420DD932466946B1
:100460000020AFF30080070008BF00F0C3FF009832
:10047000A04218BF0546C419FFF7C8FF056007462C
:10048000F01D20F007004619284600F00AF8B44293
:1004900008BFF8BDA21B31463868BDE8F84000F03F
:1004A00015BB00210160C0E90110704710207047A2
:1004B00070B50446051FFFF7A9FF0068002C14BFA4
:1004C000446870BD002C18BFAC423CBF2046646835
:1004D000F8D301680A18AA4218BF456003D12A68F8
:1004E00005461144016028684119A1421CBF6C6097
:1004F00070BD6168696021680844286070BD10B5EE
:1005000000F0E0FA006810BD10B5044600F0DAFA19
:10051000046010BD70B5044685690068C10601D548
:10052000302600E02026C00707D070BDD4E90121A5
:1005300030469047206A401C20626D1EF6D570BD83
:1005400070B5044685690078C00707D170BDD4E94D
:10055000012120209047206A401C20626D1EF6D5A4
:1005600070BD09684A0501D540B27047C905FCD580
:1005700000B2704709684A0501D5C0B27047C90585
:10058000FCD580B2704770B50C460546012A05D0EF
:100590002878800600D5EA69002302E0012305E0FF
:1005A0005B1C934202D2E05C0028F9D1A869E618EE
:1005B000C01AA861286A184428622846FFF7AAFFD3
:1005C00004E0D5E9012114F8010B9047B442F8D3B7
:1005D0002846FFF7B5FF70BD2DE9F041064600241F
:1005E00010687529314616A510D0FFF7BAFF00280C
:1005F00002DA404213A507E031688A0701D512A547
:1006000002E0490704D511A5012401E0FFF7B2FF7C
:1006100000210A2206F1240709E0B0FBF2FCB0FB3E
:10062000F2F302FB1C00303078541846491C0028B5
:10063000F3D123462A463046BDE8F04100F0A5BA82
:10064000000000002D0000002B0000002000000032
:1006500011680268006A530501D508700AE0D305E5
:1006600001D5088006E0130603D5C217C1E90002D0
:1006700000E008600120704701694A1C02610878A7
:10068000704700B58FB0CDE90131002105910549D2
:100690007944CDE903101146684600F029F90FB0FE
:1006A00000BD0000E5FFFFFF0A6802F8010B0A60C9
:1006B000704700002DE9FF5F15468A460446DFF8C3
:1006C000AC80F8440027D8E900103E46CDE9001080
:1006D00010E03AF816106A4602A800F067FE411CC6
:1006E00007D02178890603D5E269391891420DD8DF
:1006F0000744761C2078800602D5E069B84205DD03
:10070000AE42E6DB3AF816000028E2D1A069C01B31
:10071000A0612046FFF7FEFED8E90010CDE90010E9
:10072000002017E03AF818106A4602A800F03EFED2
:10073000B0F1FF3F81460BD000250DF1080B05E01D
:10074000D4E901211BF8050090476D1C4D45F7D3F6
:1007500008F10100B0428046E4DB206A38442062A0
:100760002046FFF7EDFEBDE8FF9F0000EA9A00007B
:100770002DE9F0418046D21D22F007020025D2E982
:100780000002F52915A614D0011E72F1000106DA47
:100790000023D0EB030063EB020211A608E0D8F8B7
:1007A00000108B0701D50FA602E0490701D50EA660
:1007B00001251146002408F1240704E000F0A0F907
:1007C00030323A55641C50EA0102F7D12B463246CA
:1007D00021464046BDE8F04100F0D7B900000000D6
:1007E0002D0000002B0000002000000030B400218C
:1007F00000F1240408E002F00705D208303542EA8F
:100800004372DB086554491C52EA0305F3D10468BE
:10081000002310A2250708D504F020040C4304D0BF
:10082000C46901230CA2641EC46130BC00F0ADB9E0
:1008300010B5044621461068FFF79CFE024620468C
:10084000BDE810400023D1E7D21D22F00701D1E915
:100850000023CBE70000000030000000F0B40D469C
:100860000188090502D5214C7C4402E01F4C7C44E0
:100870000E34002100F1240608E002F00F071209EF
:10088000E75D42EA03721B097754491C52EA0307E9
:10089000F3D102780023120704D5702D06D009B1D8
:1008A000022311342246F0BC00F06FB9012310344A
:1008B000F8E770B504460D4621461068FFF75AFE6A
:1008C000024629462046BDE870400023C6E7D21DF7
:1008D00022F00703D3E90023C0E70368126843F05E
:1008E000200303600823C3610023B7E74C9900008D
:1008F0002DE9F05F894604464FF0000ADFF874B135
:10090000FB44C0F820A02046E1688847002874D046
:10091000252806D0D4E901219047206A401C206296
:10092000F1E700265F462046E16888472028054613
:1009300007DB312D05D2781910F8200C08B10643D9
:10094000F1E7B00701D526F00406C4F81CA0002783
:10095000C4F818A02A2D09D0284608F0A2FB38B305
:1009600004EB8708303DC8F8185019E059F8041B0B
:10097000204604EB87029161E1688847012F054614
:1009800018D1E069002820DA26F020061DE0D8F80A
:10099000180000EB800005EB40003038C8F8180064
:1009A0002046E1688847054608F07BFB0028EED129
:1009B000012F0AD02E2D08D12046E16888477F1CE0
:1009C0000546022F46F02006C4DBA069002803DAA2
:1009D000404246F00106A061F00701D026F0100663
:1009E0006C2D0BD0682D09D04C2D39D06A2D35D007
:1009F000742D35D07A2D33D016E038E0E1682F46DB
:100A000020468847B842054609D16C2F26D04FF4BE
:100A10008060E168064320468847054604E06C2F65
:100A20001AD04FF4807006430DB3A5F14100192888
:100A300002D8203546F400664A46294620462660FC
:100A40004E46FFF78DFB80B101280BD0F61D26F036
:100A5000070000F1080956E74020E4E78020D8E7C6
:100A60000020D6E706F104094DE7284652E7206A40
:100A7000BDE8F09FDC9800004FF000020429C0F0B0
:100A8000128010F0030C3FF498ACCCF1040CBCF1D4
:100A9000020F18BF00F8012BA8BF20F8022BA1EB12
:100AA0000C01FFF78ABC5FEAC17C24BF00F8012B70
:100AB00000F8012B48BF00F8012B70470048704731
:100AC00018000020004870471800002003464068C6
:100AD0008C46002818BF88423CBF03464068F8D3C4
:100AE00018681844884207D00CF1030020F0070072
:100AF000001D411A521A0146081D0A60FFF7D8BCB2
:100B000030B5B0F10A0271F100034FEA900E4EEADF
:100B1000817EB0EB0E0061EB91014FEA101E4EEAB0
:100B2000017E10EB0E0041EB11114FEA102E4EEA40
:100B3000016E10EB0E0041EB11214FEA104E4EEA10
:100B4000014E10EB0E0041EB1141401841F1000144
:100B50004FEAD00040EA41704FEAD1014FEA8104E8
:100B600044EA907410EB800544EB01046D1944EBEA
:100B70000404521BA3414FF0000348BF0A3200D5C2
:100B800030BD401C41F1000130BD2DE9F0470D465C
:100B900099469246044600F124080168880604D567
:100BA000E06921F01001216000E00120A84201DD90
:100BB000471B00E00027A1697A1902EB0900081A17
:100BC000A0612078C00602D42046FFF7A3FC0026CF
:100BD00008E0D4E901211AF806009047206A401C79
:100BE000761C20624E45F4DB2078C0060AD52046EC
:100BF000FFF790FC06E0D4E9012130209047206AFD
:100C0000401C2062381EA7F10107F4DC07E0D4E99C
:100C1000012118F805009047206A401C2062281E18
:100C2000A5F10105F3DC2046FFF78AFC20780006D9
:100C300002D50220BDE8F0870120FBE72DE9FF4F38
:100C40000C461E464FF0FF378BB0D2E90001DDF8AD
:100C500060800A908A46C1F30A5505B93D460021D5
:100C600008464FF00000BAF1000F00F4400005DA2A
:100C700000EB80004FF4400101EA50004FEA905928
:100C8000B9F1010F00DDB9460A9850EA4A000ED0CA
:100C900044F61050A5F2FF3545432F14B8F1000F6C
:100CA0001ED07542291E1EDDC9F100021CE0B8F1FC
:100CB000010F4FF0000001D0302103E0F24305E0C6
:100CC0002154401CB042FBDB30460022002121545D
:100CD0000B99C1F80880C1E900200FB0BDE8F08F82
:100CE000BD1B6D1CDEE74A4600DA694206A800F02B
:100CF000FBFB06AB93E8070003AB83E80700504615
:100D00000A9907F08AFD8DE80700A0F500501F380A
:100D100000900398002D0ADD42F21F014A46084464
:100D2000002303A90390684607F0F4FF09E0A0F54B
:100D300000504A461F38002303A90390684607F075
:100D4000FEFF8DE807000004000C03D04FF0FF30D9
:100D5000410800E01046B8F1000F03D000220092D5
:100D600015461EE0751E05D4FFF7CAFE30326255E7
:100D70006D1EF9D5B3460122084302D000227F1C24
:100D800004E02078302801D100227F1E002A099734
:100D900084D01DE0112D07DAFFF7B2FE3032625524
:100DA0006D1C50EA0102F5D1084302D00098C8B189
:100DB0000EE00021681E05E0235C625C635422544F
:100DC000401E491C8142F7DBAB46A81B401E099020
:100DD000002004F80B000B98099AC0F80880C0E9BD
:100DE000002B7AE711264FF0000857E72DE9F04F66
:100DF00088460446D21D22F0070191B0D1E90001D6
:100E0000CDE90A0108F0D2F802460B98C00F01D0D4
:100E10002D2007E02068810701D52B2002E020214A
:100E200001EAC000032A099001D0072A05DB034626
:100E30004146204600F018FB0BE12078800601D5E2
:100E4000E06900E00620B8F1650F814606D0B8F1F0
:100E5000660F18D0B8F1670F70D131E00020B9F1FA
:100E6000110F009001DB112301E009F101030AAA2F
:100E700001A90CA8FFF7E2FEDDE90C70002609F1DC
:100E80000105834647E001204B4600904FF00047A4
:100E90000AAA01A90CA8FFF7D1FEDDE90DB00C9953
:100EA0005D46002610B909F101000D18B9EB0500E7
:100EB00003D4C0F1FF3609F10105A5EB09002BE0D1
:100EC000B9F1010F01DA4FF001090020B9F1110F5A
:100ED0000090484601DD112300E003460AAA01A95B
:100EE0000CA8FFF7ABFEDDE90C704D4600268346EB
:100EF000207800070AD4AB4500DA5D4601A8012D31
:100F000004DD411911F8011C302907D04F4502DAE0
:100F100017F1040F04DA012082460FE06D1EEEE7A0
:100F2000002F02DCED1B3E4403E0781CA84200DDEC
:100F30007D1CB81B00F1010A4FF000472078000724
:100F400003D4AA4501DB4FF0FF3A0021B7F1004F6F
:100F50000DF143088DF8431024D002202B23002FDD
:100F600001DA7F422D230A21021EA0F1010000DCDC
:100F70005FB197FBF1FC97FBF1F201FB1C7C17467C
:100F80000CF1300C08F801CDEEE7A8F10100037078
:100F90002188090501D5452100E06521A0F101085E
:100FA00000F8011C09980FA9A1EB0807FF1D00B16B
:100FB0000120411901EBEA70A1693844081A401E6A
:100FC000A0612078C00602D42046FFF7A3FA099852
:100FD00028B1D4E901219047206A401C2062207882
:100FE000C00622D52046FFF795FA1EE0002E04DB4E
:100FF000B34502DD01A8805D00E03020D4E9012185
:101000009047206A401C2062761CAAF101005FEA2A
:10101000000A0AD100F024FAC0680168405CD4E9F3
:1010200001219047206A401C2062281EA5F101057D
:10103000DCDC07E0D4E9012118F8010B9047206AB5
:10104000401C2062381EA7F10107F3DC2046FFF7A1
:1010500077FA032011B041E62DE9F04F04460D4622
:10106000D21D22F0070089B0D0E9009748463946E2
:1010700007F09CFF0246F80F01D02D2307E02068FF
:10108000810701D52B2302E0202101EAC0038DF85E
:1010900020300BB1012000E00020032A824601D05D
:1010A000072A04DB2946204600F0DEF93FE12078DC
:1010B000800601D40D2500E0E569C7F30A560D2D21
:1010C00049DA00214FEA175B08464FF00000002F75
:1010D00000F4400007DA00EB80004FF4400100EB21
:1010E000D07001EA60008115012901DD4FF0FF3168
:1010F00000224FEA850CBCF1180F06D31346ACF161
:1011000018004FF08052C24003E04FF4801323FADE
:101110000CF30CF10C0CBCF1200F04D3ACF1200C3F
:1011200009FA0CF001E007FA0CF000294FF0004832
:1011300001DD18B90FE00ED140450CD319EB0209BF
:101140005F4121B9404502D19F4329EA0209BBEB27
:10115000175F00D0761C2088000502D57B487844B4
:1011600002E07A487844193808AA302302F80A3095
:10117000037C0AF10101002E0AF1020A53546A4667
:1011800002DC4FF0300101E04FF031014FF0010877
:101190008DF8001002D0A6F2FF3603E059EA4701AD
:1011A00000D06B4E002D02DC2178090704D54FF0EA
:1011B00002082E218DF80110C44600210BE0C7F370
:1011C00003433F01C35C491C6D1E02F8083005292A
:1011D00008F1010801DA002DF1DC00210CE000EB40
:1011E0001973491C1B786D1E082902F808304FEA54
:1011F000091908F1010801DA002DF0DC21688B06DD
:1012000002D516E0A8F10108E04505DD02EB080370
:1012100013F8013C302BF5D0B8F1000F09DD02EBDB
:10122000080313F8013C2E2B03D1090701D4A8F1C0
:101230000108002D05DD3E2102F808106D1E08F1A1
:101240000108407C002E02F8080008F1010804DAC9
:101250002D20764202F8080002E02B2002F8080058
:101260000A214FF47A70864208F101080BDB96FBE5
:10127000F0F3303302F8083096FBF0F308F1010880
:1012800000FB136601E0642E0CDB642096FBF0F398
:10129000303302F8083096FBF0F308F1010800FB48
:1012A000136601E00A2E06DB96FBF1F0303002F8FF
:1012B000080008F1010896FBF1F001FB10603030E6
:1012C00002F80800A16908F1010808EB050202EB29
:1012D0000A00081AA0612078C00602D42046FFF751
:1012E00019F9216A08AE01EB0A00206204E0D4E992
:1012F000012116F8010B9047BAF1010AF7D22078C4
:10130000C00602D52046FFF705F96E4609E016F83B
:10131000010B3E280FD0D4E901219047206A401CE0
:101320002062B8F10108F2D22046FFF709F909B0AE
:101330000320BDE8F08F206A2844206203E0D4E94E
:101340000121302090476D1EEBD3F8E7B1900000EB
:1013500002FCFFFF10B5436913B1AFF3008001E059
:10136000FFF711F9012010BD127800F124010A7075
:1013700000224A700122EDE711684FF0FF32E9E7E1
:1013800010B5436913B1AFF3008001E0FFF792F9A4
:10139000012010BD128800F1240182840022C28441
:1013A0000122EDE711684FF0FF32E9E72DE9F04146
:1013B00016460C46054600F04BF8036893F8010109
:1013C000012807D0FF2C12D8185D80B101202C70A5
:1013D000BDE8F081D3F807013246214603F2071336
:1013E000C7182846BC46BDE8F041002360474FF0CF
:1013F000FF30EDE710B500F0F7F8BDE8104000F061
:10140000EEB870477546FFF759FBAE4605006946D2
:10141000534620F00700854618B020B5FEF71CFFA4
:10142000BDE820404FF000064FF000074FF00008E5
:101430004FF0000BAC46ACE8C009ACE8C009ACE822
:10144000C009ACE8C00921F007018D4670470000D3
:1014500010B500F005F8001D10BD00BFDD7F0000D5
:1014600000487047380000202DE9F0411F4604462F
:1014700003260168072A01F4006004DB08B116A501
:1014800005E016A503E008B115A500E015A521F0BB
:1014900010002060A069C01EA0610FB1401EA061B5
:1014A0002046FFF737F84FB1D4E90121384690477D
:1014B000206A401C2062C01C206206E0206AFAE715
:1014C000D4E9012115F8010B9047761EF8D2204689
:1014D000FFF736F8BDE8F0814E414E006E616E00B8
:1014E000494E4600696E66002DE9F0478146164672
:1014F0008AB0354878440DC88DE80D0032487844EC
:10150000801C03AC0DC884E80D0041F69B300844F4
:10151000372190FBF1F290FBF1F5A5F1800501FB7D
:1015200012041B3C02D56442012000E00020DFF8D9
:1015300098A080460027FA44AAF1BE0A0EE0E00710
:101540000AD03246684607EB470101230AEB8101C6
:1015500007F0F5FB8DE8070064107F1C002CEED12E
:10156000194F7F44AE3F19E0E80715D007EB041090
:101570000DF1180A90E80E008AE80E00C068F042EB
:1015800001D1981908903246012306A903A807F053
:10159000D6FB03AB83E807006D10641C002DE3D17C
:1015A0004FF0010332466946B8F1000F03A802D09C
:1015B00007F0B0FB01E007F0C2FBC9E90001C9F880
:1015C00008200AB0BDE8F087AC8D000010B50446D5
:1015D000AFF300802046BDE81040FEF728BE00288B
:1015E00001D000F029B8704710B5012805D00021BE
:1015F00003A000F027F8012010BD09A1F8E70000C2
:1016000053494752544D454D3A204F7574206F66EB
:101610002068656170206D656D6F72790000000053
:101620003A2048656170206D656D6F727920636F37
:10163000727275707465640001491820ABBEFEE7D4
:101640002600020070B505460C460A2000E06D1C1D
:1016500000F052F835B128780028F8D102E0641C77
:1016600000F04AF814B120780028F8D1BDE87040A5
:101670000A2000F041B800004FF0013C50F8042B64
:1016800051F8043B9A4221D1A2EB0C03934313EA95
:10169000CC1317D150F8042B51F8043B9A4215D1C2
:1016A000A2EB0C03934313EACC130BD150F8042B99
:1016B00051F8043B9A4209D1A2EB0C03934313EA7D
:1016C000CC13DBD04FF00000704700BFD01A01BA36
:1016D000B1FA81F101F0180122FA01F0CB40DBB23E
:1016E000C0B2C01AC1F120012CFA01F3D11A914302
:1016F00011EAC311E6D1704708B569468DF80000BC
:101700000320ABBE08BD000080B584B0029000206D
:101710000190029800688068C00770B3FFE70298E4
:101720000168886820F00100886001F081FE019066
:10173000FFE7029800688068C007E8B1FFE701F0A2
:1017400077FE0199401A032815D3FFE70298006835
:101750008068C00770B1FFE70299886A40F0100006
:1017600088620299C86A40F00100C86201208DF8C1
:101770000F0006E0FFE7DCE7FFE700208DF80F0031
:10178000FFE79DF80F0004B080BD000080B582B077
:1017900001900198406A00900098806A10F0500F04
:1017A00028D1FFE70099886A40F4007088620098A9
:1017B0000068806800F46020B0F5602F16D1FFE764
:1017C0000098007B90B9FFE70099886A20F4807048
:1017D00088620098806AC004002806D4FFE7009958
:1017E000886A40F001008862FFE7FFE7009800F098
:1017F000FFFD05E00098006A016B01988847FFE74C
:1018000002B080BD80B582B001900198406A00901E
:101810000099886A40F0400088620099C86A40F0E8
:101820000400C862009800F0EBFD02B080BD00002B
:1018300080B582B001900198406A0090009800F055
:10184000DBFD02B080BD000080B584B002900020B6
:1018500001900090029800688068C007002849D174
:10186000FFE702980168886840F00100886040F254
:101870000C00C2F2000000684DF68361C4F21B3117
:10188000A0FB0110800C0090FFE7009820B1FFE75B
:10189000009801380090F8E701F0CAFD0190FFE7D9
:1018A000029800688068C00718BBFFE701F0C0FD20
:1018B0000199401A03281BD3FFE70298006880684B
:1018C000C007A0B9FFE70299886A40F0100088625B
:1018D0000299C86A40F00100C862FFE7029900203F
:1018E00081F82400FFE701208DF80F0006E0FFE7F4
:1018F000D6E7FFE700208DF80F00FFE79DF80F0007
:1019000004B080BD80B582B001900199087B488108
:1019100001994A89487B40EA022048810198009059
:10192000408908F037F84FF0333243F23333C3F6CF
:10193000F37307F053FE07F0E7FF0099488100209A
:1019400002B080BD80B582B00190019800F066F8C9
:101950000198FFF7D7FF002002B080BD80B582B0AC
:1019600001900198012100F075F80198032100F021
:1019700071F80198102100F06DF8002002B080BDD0
:1019800080B586B0049003918DF80B2001201421BE
:10199000FEF774FC0190019818B9FFE7002005904C
:1019A00030E09DF80B0038B1FFE70199472008723D
:1019B00001994620487206E00199BA2008720199FF
:1019C000B9204872FFE70398FEF7D6FCFEF76AFCE1
:1019D000019908600198006818B9FFE70020059098
:1019E00010E0049801994860019800680399FEF797
:1019F0009FFC019941F60D20C0F600000861019896
:101A00000590FFE7059806B080BD000080B582B064
:101A100001900198FFF796FF02B080BD80B584B0B9
:101A20000290029A5068117A0C32EC460A23CCF8E4
:101A30000030022301F054FE20B1FFE701208DF8B1
:101A40000F0003E000208DF80F00FFE79DF80F0066
:101A500004B080BD80B584B002908DF80710029963
:101A60004868497A6B460A221A600DF10702012381
:101A700002F088F820B1FFE701208DF80F0003E0A5
:101A800000208DF80F00FFE79DF80F0004B080BD27
:101A9000FFE7FEE780B582B040F27800C2F20000B6
:101AA000007818BBFFE740F27900C2F2000002782C
:101AB00040F60000C4F2010001904FF4807101F083
:101AC0009FFC019840F29E01C2F200010A784FF497
:101AD000007101F095FC019840F2A201C2F20001F0
:101AE0000A784FF4806101F08BFCFFE702B080BD03
:101AF00080B582B00190019804F042F902B080BD37
:101B000082B00190ADF8021001980168002048628F
:101B1000FFE701980068406ABDF80210884201D2D0
:101B2000FFE7F6E702B0704780B582B001900198F8
:101B30004068FFF7DDFF02B080BD000080B582B0D5
:101B40000190ADF8021001984068BDF80210FFF74F
:101B5000D7FF02B080BD000080B586B084460898EB
:101B6000CDF814C08DF8131003920293ADF806005F
:101B70009DF81300012805D1FFE7059944F6206080
:101B800008800AE09DF81300022805D1FFE70599B7
:101B900042F6E0600880FFE7FFE702980599C86019
:101BA000BDF80600059908810398059948600598D5
:101BB000FFF7BAFF06B080BD80B586B00590002063
:101BC00003908DF81200059800F020F903988DF825
:101BD0001300FFE79DF81300072800F39380FFE749
:101BE00001F026FC40F24C21C2F20001086001F035
:101BF0001FFC40F2B001C2F200010860FFE7059847
:101C000000F084F801460020029089B9FFE740F215
:101C10004C20C2F200000068811C40F2B000C2F209
:101C2000000002680020914288BF01200290FFE777
:101C30000298C00740B1FFE701F0FAFB40F2B001A3
:101C4000C2F200010860DAE705982821FFF776FF65
:101C5000059800F05BF868B9FFE79DF81300C0F144
:101C60000701012000FA01F19DF8120088438DF868
:101C700012000CE09DF81300C0F10701012000FAEA
:101C800001F19DF8120008438DF81200FFE701F002
:101C9000CFFB40F24C21C2F20001086001F0C8FB0A
:101CA00040F2B001C2F200010860FFE7059800F0C1
:101CB0002DF801460020019089B1FFE740F24C2049
:101CC000C2F200000068811C40F2B000C2F20000C5
:101CD00002680020914288BF01200190FFE701982F
:101CE000C00740B1FFE701F0A3FB40F2B001C2F230
:101CF00000010860DAE7FFE79DF8130001308DF876
:101D0000130067E79DF8120006B080BD80B582B071
:101D100001900199C868098901F046FB8DF803001C
:101D20009DF8030002B080BD80B586B0059000200C
:101D3000ADF80E00059800F095F80598FFF73CFF08
:101D40008DF811000598FFF737FF8DF81000059802
:101D5000FFF732FF8DF813000598FFF72DFF8DF880
:101D600012000598FFF728FFADF80E009DF811004E
:101D70009DF8101008449DF8131008449DF81210A7
:101D80000844BDF80E1088422FD1FFE79DF81100DE
:101D900008F0A2F800909DF810004CF6CD41CCF66A
:101DA000CC410191A0FB0110C00808F07DF801466C
:101DB000009807F0FBFF08F05BF8059948619DF873
:101DC000130008F089F8019902909DF81200A0FB19
:101DD0000110C00808F068F80146029807F0E6FF15
:101DE00008F046F805990861FFE79DF811009DF895
:101DF000101008449DF8131008449DF81210084470
:101E0000BDF80E10401AC0B206B080BD80B586B0D5
:101E10000590002004900390029001900599098993
:101E200001910290012003900598C06801A901F07A
:101E30002BF906B080BD000080B586B0059000206B
:101E40000490039002900190059800890190012070
:101E50000290022004900598C06801A901F014F9CD
:101E600006B080BD80B584B00390002001908DF84D
:101E70000B000398FFF7E0FF0199039800F062F868
:101E800003980188FFF75AFE0398012100F05AF8E1
:101E900003981E21FFF752FE0398FFF7B7FF039840
:101EA0002821FFF74BFE0398FFF730FF90B9FFE7BB
:101EB00003985021FFF742FE0398FFF727FF20B158
:101EC000FFE701208DF80B0003E000208DF80B00E8
:101ED000FFE7FFE701F0ACFA40F24C21C2F200014B
:101EE000086001F0A5FA40F2B001C2F200010860FA
:101EF000FFE70398FFF70AFF01460020009089B131
:101F0000FFE740F24C20C2F200000068811C40F262
:101F1000B000C2F2000002680020914288BF012098
:101F20000090FFE70098C00740B1FFE701F080FA9A
:101F300040F2B001C2F200010860DAE79DF80B0040
:101F400004B080BD80B582B001908DF80310019976
:101F5000C86809899DF8032001F052FA02B080BDDB
:101F600080B540F2E800C2F2000000F0D1FC80BD74
:101F700084B003900291019200930398C16B026CAC
:101F800001209040486000980399096848600398D0
:101F90004068102809D1FFE7019803990968886013
:101FA000029803990968C86008E0029803990968D3
:101FB0008860019803990968C860FFE704B070471A
:101FC0007047000080B58EB0ADF83600ADF8341023
:101FD0000C92ADF82E30002005900021C4F23001A3
:101FE00007F066F802460598039204914FF080418D
:101FF00007F05EF8024603980B46049907F0EEFAE4
:1020000007F082FC014605980A91BDF83610ADF83C
:102010002610BDF83610BDF82E20BDF834301A4415
:1020200001EB1211ADF82410BDF82410BDF82620E4
:10203000891A0131ADF82210ADF820000790FFE7B2
:102040000798BDF82210884243DAFFE7BDF8260062
:102050000A998840BDF834100843ADF81A00BDF85D
:102060002E00BDF8341005F047FEADF81800BDF89D
:102070001A200C98BDF820100844BDF818306946A5
:102080004FF47A7CC1F808C04B60086040F22C1015
:10209000C2F20000A021022301F078FEBDF8260064
:1020A0000130ADF826000020ADF83400BDF82E0058
:1020B000BDF81810401AADF82E00BDF81810BDF884
:1020C00020000844ADF82000FFE707980130079092
:1020D000B6E70EB080BD000080B58EB0ADF836001A
:1020E000ADF834100C92ADF82E3000200590002190
:1020F000C4F2300106F0DCFF024605980392049119
:102100004FF0804106F0D4FF024603980B46049935
:1021100007F064FA07F0F8FB014605980A91BDF84C
:102120003610ADF82610BDF83610BDF82E20BDF8DB
:1021300034301A4401EB1211ADF82410BDF824100C
:10214000BDF82620891A0131ADF82210ADF8200023
:102150000790FFE70798BDF82210884246DAFFE7AC
:10216000BDF826000A998840BDF834100843ADF840
:102170001A00BDF82E00BDF8341005F0BDFDADF815
:102180001800BDF81A200C98BDF820100844BDF8BE
:10219000183069464FF47A7CC1F808C04B6008607B
:1021A00040F22C10C2F20000A021022302F052F8EB
:1021B000BDF826000130ADF826000020ADF834004F
:1021C000BDF82E00BDF81810401AADF82E00BDF86D
:1021D0001810BDF820000844ADF82000052000F0DC
:1021E00099FDFFE7079801300790B3E70EB080BD77
:1021F00080B54FF4806000F02BFF80BD80B50220D9
:1022000000F026FF80BD000080B5042000F020FF14
:1022100080BD000080B5082000F01AFF80BD0000DE
:1022200080B5102000F014FF80BD000081B0EFF3F6
:10223000108072B60090FFE7FEE7000085B00390C3
:10224000029100208DF807000090FFE7039890F8B6
:102250002400012804D1FFE702208DF81300C3E019
:102260000399012081F82400FFE7FFE70298406806
:10227000062812D8FFE703980068406B029A11689D
:10228000526802EB8202053A1F2393409843914023
:10229000084303990968486329E0029840680C28BC
:1022A00012D8FFE703980068006B029A1168526821
:1022B00002EB8202233A1F23934098439140084344
:1022C00003990968086311E003980068C06A029ADC
:1022D0001168526802EB8202413A1F2393409843EF
:1022E0009140084303990968C862FFE7FFE7029835
:1022F00000680A2812D3FFE703980068C0680299B3
:102300000A68896802EB42021E3A07239340984309
:102310009140084303990968C86010E00398006879
:10232000006902990A68896802EB42020723934018
:10233000984391400843039909680861FFE70298B0
:102340000068102805D0FFE702980068112840D1E6
:10235000FFE70398006842F20041C4F2010188429D
:102360002DD1FFE70398006880680002002825D47B
:10237000FFE703980168886840F4000088600298CD
:102380000068102819D1FFE740F20C00C2F20000EB
:1023900000684DF68361C4F21B31A0FB0110800C74
:1023A00000EB800040000090FFE7009820B1FFE7BD
:1023B000009801380090F8E7FFE7FFE708E003998D
:1023C000886A40F02000886201208DF80700FFE74E
:1023D000FFE7FFE70399002081F82400FFE79DF85D
:1023E00007008DF81300FFE79DF8130005B0704754
:1023F00081B0009001B0704781B0009001B070478B
:1024000081B0009001B0704780B588B00690002080
:102410008DF81700049003900290069820B9FFE70A
:1024200001208DF81F00F4E00698806830B1FFE7C6
:102430000698007D08B1FFE7FFE7FFE70698806A8E
:1024400050B9FFE706990020C862069981F8240078
:10245000069800F0E3F8FFE70698FFF755F98DF8C6
:1024600017000698806AC006002800F1C480FFE7C4
:102470009DF81700002840F0BE80FFE70698806AAC
:1024800040F0020020F48850069988620699486856
:10249000CA691043097B40EA41010398084303904D
:1024A000069881680120B1F5807F019008D0FFE790
:1024B000069880680138B0FA80F040090190FFE783
:1024C00001990498CA0740F48071002A18BF084691
:1024D00004900698007D01281ED1FFE70698007B36
:1024E00070B9FFE7069881694EF20000CFF6FF70E1
:1024F00000EB41300499084340F4006004900AE086
:102500000699886A40F0200088620699C86A40F0FF
:102510000100C862FFE7FFE706980068406820F402
:10252000694004990843069909684860069800685C
:1025300080684FF2FD71CFF6E171084003990843BE
:10254000069909688860069881680120B1F5807F46
:10255000009008D0FFE7069880680138B0FA80F054
:1025600040090090FFE7009800F00100002818BF24
:102570004FF48070B0F5807F09D1FFE706980169BC
:102580000020CFF6F07000EB01500290FFE70698B4
:102590000068C06A20F4700002990843069909682F
:1025A000C86206980068806840F6FE61CFF61F7129
:1025B0000840039988420CD1FFE706990020C862C1
:1025C0000698806A40F0010020F0020006998862B7
:1025D00010E00698806A40F0100020F00200069992
:1025E00088620699C86A40F00100C86201208DF82F
:1025F0001700FFE708E00699886A40F0100088623B
:1026000001208DF81700FFE79DF817008DF81F00D7
:10261000FFE79DF81F0008B080BD000080B588B0BE
:10262000079000200690059004900390079800689A
:1026300042F20041C4F20101884252D1FFE7FFE7B4
:1026400041F21800C4F20200016841F40071016017
:10265000006800F4007002900298FFE7FFE741F283
:102660001800C4F20200016841F004010160006832
:1026700000F0040001900198FFE70120039003207F
:10268000049040F60000C4F2010003A900F0FCFC35
:1026900040F2E800C2F2000000900821C4F20201FA
:1026A00001600021416081608022C2604FF40072AD
:1026B00002614FF40062426120228261C16100F038
:1026C0006BFA18B1FFE7FFF7B1FDFFE7FFE70798E7
:1026D00040F2E801C2F20001016207984862FFE798
:1026E000FFE708B080BD000080B586B0049003917C
:1026F000029200208DF807000498006842F2004121
:10270000C4F20101884209D0FFE70498006842F64C
:102710000001C4F20101884209D1FFE742F20440FE
:10272000C4F20100006800F47020009002E0002074
:102730000090FFE70098002840F0DC80FFE7FFE70B
:10274000049890F82400012804D1FFE702208DF8B6
:102750001700D8E00499012081F82400FFE7FFE783
:102760000498FFF771F88DF807009DF8070000281E
:1027700040F0B880FFE70498806A40F4807040F62B
:1027800001618843049988620498006842F6000158
:10279000C4F20101884209D1FFE742F20440C4F2C9
:1027A0000100006810F4702F03D018E00020B0B9C9
:1027B000FFE70499886A20F4801088620498006812
:1027C00040684005002809D5FFE70498806A40F476
:1027D000805020F4005004998862FFE72CE00499AF
:1027E000886A40F4801088620498006842F20041D0
:1027F000C4F20101884209D0FFE70498006842F65C
:102800000001C4F20101884209D1FFE742F204400D
:10281000C4F2010000684005002803D40BE0012049
:1028200048B9FFE70498806A40F4805020F40050D3
:1028300004998862FFE7FFE70498806AC0040028D3
:1028400006D5FFE70499C86A20F00600C86203E0D5
:1028500004990020C862FFE7FFE70499002081F88F
:102860002400FFE70498016A41F28D70C0F6000071
:1028700088620498016A41F63100C0F60000C8621F
:102880000498016A41F60500C0F600000863049848
:1028900001686FF00200086004980168886840F4DD
:1028A0008070886004980168006A4C31039A029B2A
:1028B00000F0CAF904980068806800F46020B0F560
:1028C000602F07D1FFE704980168886840F4A000F2
:1028D000886006E004980168886840F48010886089
:1028E000FFE706E0FFE70499002081F82400FFE7F6
:1028F000FFE703E001208DF80700FFE79DF80700E0
:102900008DF81700FFE79DF8170006B080BD0000A6
:1029100080B58EB00D900D98C06B00680C900D982E
:10292000006800680B900C980D99096CC84040072E
:10293000002875D5FFE79DF82C00400700286FD5CB
:10294000FFE70D98006800688006002807D4FFE7BD
:102950000D980168086820F004000860FFE70D98F2
:1029600000680821C4F20201884203D1FFE7042075
:102970000A9047E00D9800681C21C4F202018842C9
:1029800003D1FFE74020099039E00D98006830211D
:10299000C4F20201884204D1FFE74FF4806008903E
:1029A0002AE00D9800684421C4F20201884204D153
:1029B000FFE74FF4804007901BE00D980068582116
:1029C000C4F20201884204D1FFE74FF48020069050
:1029D0000CE00D9801686C22C4F202024FF0806096
:1029E000914208BF4FF480000690FFE706980790D9
:1029F000FFE707980890FFE708980990FFE7099814
:102A00000A90FFE70A980421C4F2020108600D98B9
:102A1000C06A20B1FFE70D98C16A8847FFE7B8E0B8
:102A20000C980D99096CC8408007002840F18080FF
:102A3000FFE79DF82C008007002879D5FFE70D9867
:102A400000680068800600280BD4FFE70D98016835
:102A5000086820F00A0008600D99012081F8210023
:102A6000FFE70D9800680821C4F20201884203D1F3
:102A7000FFE70220059047E00D9800681C21C4F292
:102A80000201884203D1FFE72020049039E00D982D
:102A900000683021C4F20201884204D1FFE74FF4FC
:102AA000007003902AE00D9800684421C4F20201EE
:102AB000884204D1FFE74FF4005002901BE00D98CC
:102AC00000685821C4F20201884204D1FFE74FF4A4
:102AD000003001900CE00D9801686C22C4F20202F3
:102AE0004FF00070914208BF4FF400100190FFE7D3
:102AF00001980290FFE702980390FFE70398049083
:102B0000FFE704980590FFE705980421C4F202014D
:102B10000860FFE70D99002081F82000FFE70D987D
:102B2000806A20B1FFE70D98816A8847FFE72FE0B0
:102B30000C980D99096CC8400007002827D5FFE7BD
:102B40009DF82C000007002821D5FFE70D980168AB
:102B5000086820F00E0008600D98C26B016C01201F
:102B600000FA01F151600D9988630D9981F82100F7
:102B7000FFE70D99002081F82000FFE70D98006B1A
:102B800020B1FFE70D98016B8847FFE7FFE7FFE7FC
:102B9000FFE70EB080BD000083B0019000200090E0
:102BA000019820B9FFE701208DF80B0047E001995B
:102BB00008684FF6F872CBF6FD7210444CF6CD4221
:102BC000CCF6CC42A0FB02026FF0030000EA9200B8
:102BD000086401990020C4F20200C8630199022030
:102BE00081F821000198006800680090009843F681
:102BF000F0718843009001994868D1F808C0CB680B
:102C00000A6940EA0C00184310434A6910438A6974
:102C10001043C96901430098084300900098019946
:102C200009680860019900208863019A012182F8EF
:102C30002110019981F820008DF80B00FFE79DF825
:102C40000B0003B07047000080B586B0049003917C
:102C50000292019300208DF80300FFE7049890F89A
:102C60002000012804D1FFE702208DF817004CE076
:102C70000499012081F82000FFE7FFE7049890F80D
:102C80002100012832D1FFE70499022081F82100B8
:102C900004990020886304980168086820F0010006
:102CA000086004980399029A019BFFF761F9049860
:102CB000C06A38B1FFE704980168086840F00E0068
:102CC00008600CE004980168086820F004000860BF
:102CD00004980168086840F00A000860FFE704985B
:102CE0000168086840F00100086009E0FFE7049906
:102CF000002081F82000FFE702208DF80300FFE7A5
:102D00009DF803008DF81700FFE79DF8170006B047
:102D100080BD000080B584B0039000F089FB029074
:102D2000039801900198013048B1FFE740F212008A
:102D3000C2F200000178019808440190FFE7FFE724
:102D400000F076FB0299401A0199884201D2FFE710
:102D5000F6E704B080BD000080B584B0ADF80E0089
:102D6000BDF80E00B0F5806F29D1FFE740F2B40145
:102D7000C2F200010120087040F27900C2F20000A6
:102D8000027840F60000C4F2010001904FF4807117
:102D900000F036FB0198082100F006FB014601987F
:102DA0008DF80C10042100F0FFFA014601988DF80F
:102DB0000B10022100F0F8FA8DF80A0045E1BDF889
:102DC0000E00102840F0A080FFE740F60000C4F29B
:102DD0000100102100F0E8FA8DF80D009DF80D00BB
:102DE000012840F08980FFE740F27801C2F200013B
:102DF0000020087040F60000C4F20100082100F035
:102E0000D3FA8DF80C009DF80C0078B9FFE740F27A
:102E10007900C2F200000122027040F60000C4F204
:102E200001004FF4807100F0EBFA0EE040F27900FF
:102E3000C2F200000022027040F60000C4F201005D
:102E40004FF4807100F0DCFAFFE740F60000C4F2B6
:102E50000100042100F0A8FA8DF80B009DF80B008A
:102E600078B9FFE740F29E00C2F200000122027032
:102E700040F60000C4F201004FF4007100F0C0FA07
:102E80000EE040F29E00C2F200000022027040F606
:102E90000000C4F201004FF4007100F0B1FAFFE746
:102EA00040F60000C4F20100022100F07DFA8DF826
:102EB0000A009DF80A0078B9FFE740F2A200C2F2CA
:102EC00000000122027040F60000C4F201004FF43D
:102ED000806100F095FA0EE040F2A200C2F200001C
:102EE0000022027040F60000C4F201004FF480613D
:102EF00000F086FAFFE706E040F27801C2F2000136
:102F000001200870FFE79FE040F27800C2F2000065
:102F10000078002840F09780FFE7BDF80E000828F1
:102F20002CD1FFE740F60000C4F20100082100F0B8
:102F30003BFA8DF80C009DF80C0078B9FFE740F2E1
:102F40007900C2F200000122027040F60000C4F2D3
:102F500001004FF4807100F053FA0EE040F2790066
:102F6000C2F200000022027040F60000C4F201002C
:102F70004FF4807100F044FAFFE763E0BDF80E0003
:102F800004282CD1FFE740F60000C4F20100042120
:102F900000F00AFA8DF80B009DF80B0078B9FFE7F6
:102FA00040F29E00C2F200000122027040F60000D2
:102FB000C4F201004FF4007100F022FA0EE040F27A
:102FC0009E00C2F200000022027040F60000C4F22F
:102FD00001004FF4007100F013FAFFE731E0BDF893
:102FE0000E0002282CD1FFE740F60000C4F20100D9
:102FF000022100F0D9F98DF80A009DF80A0078B98D
:10300000FFE740F2A200C2F200000122027040F687
:103010000000C4F201004FF4806100F0F1F90EE00D
:1030200040F2A200C2F200000022027040F600004E
:10303000C4F201004FF4806100F0E2F9FFE7FFE71E
:10304000FFE7FFE7FFE7FFE7FFE704B080BD000011
:1030500080B582B0ADF8060040F21440C4F2010021
:103060000068BDF8061008420CD0FFE7BDF8060066
:1030700040F21441C4F201010860BDF80600FFF7F8
:103080006BFEFFE702B080BD90B00F900E91002064
:103090000D900990FFE70E9800680D99C840002830
:1030A00000F07F81FFE70D99012088400C900E9879
:1030B00000680C9908400B900B980C99884240F0DE
:1030C0006C81FFE70E9840680590002851D0FFE71B
:1030D000059801283AD0FFE7059802283FD0FFE77E
:1030E000059803285FD0FFE70598112832D0FFE745
:1030F0000598122838D0FFE705980021C1F2110188
:10310000884236D0FFE705980021C1F212018842BB
:103110002FD0FFE705980021C1F22101884228D075
:10312000FFE705980021C1F22201884221D0FFE784
:1031300005980021C1F2310188421AD0FFE70598B5
:103140000021C1F23201884213D02FE00E98C068EE
:1031500009902CE00E98C0680430099027E00E9882
:10316000C0680830099022E00E98C0680C300990C1
:103170001DE00E98806818B9FFE70420099011E05F
:103180000E988068012806D1FFE7082009900C9866
:103190000F99086105E0082009900C980F99486183
:1031A000FFE7FFE703E00020099000E0FFE70B984E
:1031B000FF2803D8FFE70F98049003E00F9804302E
:1031C0000490FFE7049808900B98FF2804D8FFE7C5
:1031D0000D988000039006E00D996FF01F0000EB42
:1031E00081000390FFE70398079008980068079A0A
:1031F0000F2191408843099991400843089908603C
:103200000E98C079C006002840F1C680FFE7FFE7AE
:1032100041F21800C4F20200016841F001010160AE
:10322000006800F0010006900698FFE70D9820F076
:1032300003000821C4F2010140580A900D9800F0E3
:10324000030081000F2000FA01F10A9888430A90D8
:103250000F9840F60001C4F20101884203D1FFE754
:103260000020029026E00F9840F60041C4F20101D0
:10327000884203D1FFE70120019018E00F9841F246
:103280000001C4F20101884203D1FFE7022000904F
:103290000AE00F9941F20042C4F201020420914277
:1032A00008BF03200090FFE700980190FFE7019816
:1032B0000290FFE702980D9901F00301890000FADE
:1032C00001F10A9808430A900A980D9921F0030128
:1032D0000822C4F2010288500E988079C00748B1D4
:1032E000FFE70B9A40F20041C4F201010868104365
:1032F000086008E00B9A40F20041C4F2010108683E
:1033000090430860FFE70E9880798007002809D570
:10331000FFE70B9A40F20441C4F201010868104330
:10332000086008E00B9A40F20441C4F20101086809
:1033300090430860FFE70E988079C006002809D501
:10334000FFE70B9A40F20841C4F2010108681043FC
:10335000086008E00B9A40F20841C4F201010868D5
:1033600090430860FFE70E9880798006002809D511
:10337000FFE70B9A40F20C41C4F2010108681043C8
:10338000086008E00B9A40F20C41C4F201010868A1
:1033900090430860FFE7FFE7FFE70D9801300D90CD
:1033A00079E610B07047000082B00190ADF80210CD
:1033B00001988068BDF80210084204D0FFE70120A0
:1033C0008DF8010003E000208DF80100FFE79DF873
:1033D000010002B07047000083B00290ADF8061003
:1033E0000298C0680090009ABDF8060002EA000149
:1033F000904340EA01400299086103B07047000021
:1034000082B00190ADF802108DF801209DF8010006
:1034100028B1FFE7BDF802000199086105E0BDF899
:103420000200000401990861FFE702B07047000044
:1034300040F25430C2F200000068704780B58EB090
:103440000C900C9820B9FFE701208DF8370043E17C
:103450000C9890F83D0040B9FFE70C99002081F8E6
:103460003C000C9800F0FEFFFFE70C99242081F847
:103470003D000C980168086820F0010008600C9875
:103480000168086840F4004008600C98016808680A
:1034900020F40040086001F0F3FA0A900C984068AC
:1034A00048F2A061C0F2010188420BD8FFE70A99F7
:1034B00048F28042C0F21E020020914238BF012033
:1034C00009900AE00A9940F60012C0F23D0200207D
:1034D000914238BF01200990FFE70998012804D1E3
:1034E000FFE701208DF83700F6E00A984DF683617A
:1034F000C4F21B31A0FB0110800C0B900C980068EB
:10350000406820F03F000B9908430C990968486017
:103510000C980068006A20F03F0008900C98406802
:1035200048F2A061C0F20101884204D8FFE70B987D
:10353000013007900EE00B984FF49671484344F623
:10354000D351C1F26201A0FB0101012000EB9110F7
:103550000790FFE70898079908430C9909680862E3
:103560000C980068C0694CF6FF71884306900C986F
:10357000406848F2A061C0F2010188421FD8FFE70D
:103580000A9801380C9949684900B0FBF1F0013004
:103590006FF31F30032803D8FFE7042005900BE0EA
:1035A0000A9801380C9949684900B0FBF1F00130E4
:1035B0006FF31F300590FFE7059804904CE00C98DE
:1035C000806868B9FFE70A9801380C99496801EBEF
:1035D0004101B0FBF1F001306FF31F3003900DE0BB
:1035E0000A9801380C99496819225143B0FBF1F04F
:1035F0000130042161F31F300390FFE703980005B9
:1036000018B9FFE70120029023E00C98806868B9A0
:10361000FFE70A9801380C99496801EB4101B0FBBA
:10362000F1F001306FF31F3001900DE00A9801387E
:103630000C99496819225143B0FBF1F00130042183
:1036400061F31F300190FFE7019840F400400290C1
:10365000FFE702980490FFE70698049908430C9945
:103660000968C8610C980068006820F0C0000C9BD5
:103670001968DA691B6A1A43104308600C980068DD
:10368000806848F2FF3188430C9A1168D368126948
:103690001A43104388600C980068C06820F0FF004F
:1036A0000C9B19685A699B691A431043C8600C98AF
:1036B0000168086840F0010008600C990020086467
:1036C0000C9A202182F83D100C9908630C9981F81E
:1036D0003E008DF83700FFE79DF837000EB080BD43
:1036E00080B590B0DDF848C00A90ADF82610089279
:1036F000ADF81E3000200690FFF79AFE05900A985C
:1037000090F83D00202840F03582FFE70A9805999F
:103710006A4611600221C0F210010122192302F051
:10372000ADFF20B1FFE702208DF82F0026E2FFE772
:103730000A9890F83C00012804D1FFE702208DF898
:103740002F001BE20A99012081F83C00FFE7FFE708
:103750000A9800680068C00738B9FFE70A9801684E
:10376000086840F001000860FFE70A9801680868EF
:1037700020F4006008600A99222081F83D000A992F
:10378000102081F83E000A990020086408980A99E0
:103790004862BDF81E000A9948850A98408D0A992A
:1037A00008850A990020CFF6FF70C8620A98BDF814
:1037B0002610129A059B02F025FC20B1FFE701209C
:1037C0008DF82F00DAE10A98008DA0B9FFE7FFE736
:1037D000002004900A980068406904900A980068E4
:1037E000806904900498FFE70A980168086840F42B
:1037F000007008605DE00A98008D01281FD1FFE786
:103800000A980168086820F480600860EFF310806F
:1038100072B60F90FFE7002003900A980068406995
:1038200003900A980068806903900398FFE70A985C
:103830000168086840F40070086062B638E00A98D1
:10384000008D02281FD1FFE70A980168086840F43C
:1038500000600860EFF3108072B60E90FFE7002062
:1038600002900A980068406902900A98006880698E
:1038700002900298FFE70A980168086820F48060C7
:10388000086062B613E00A980168086840F4806036
:103890000860FFE7002001900A98006840690190E5
:1038A0000A980068806901900198FFE7FFE7FFE749
:1038B000FFE7FFE70A98008D002800F04981FFE745
:1038C0000A98008D032800F20781FFE70A98008D0F
:1038D00001281ED1FFE70A981299059A02F0B6FF57
:1038E00020B1FFE701208DF82F0047E10A9800681A
:1038F00000690A99496A08700A99486A0130486261
:103900000A99088D013808850A99488D013848853B
:10391000E1E00A98008D022841D1FFE70A98129B46
:1039200005996A4611600421C0F20101002202F0EB
:10393000A5FE20B1FFE701208DF82F001EE1EFF377
:10394000108072B60D900A980168086840F4007003
:1039500008600A98006800690A99496A08700A991B
:10396000486A013048620A99088D013808850A9929
:10397000488D0138488562B60A98006800690A993E
:10398000496A08700A99486A013048620A99088DA4
:10399000013808850A99488D013848859AE00A98C7
:1039A000129B05996A4611600421C0F201010022B0
:1039B00002F064FE20B1FFE701208DF82F00DDE06A
:1039C0000A980168086820F480600860EFF31080AE
:1039D00072B60C900A98006800690A99496A0870E2
:1039E0000A99486A013048620A99088D01380885A9
:1039F0000A99488D0138488540F20C00C2F2000057
:103A0000006848F21F51C5F2EB11A0FB0110C0087D
:103A100044F6D351C1F26201A0FB011080092321B9
:103A200048430690FFE70698013806900698D0B9FB
:103A3000FFE70A99002008630A9A202182F83D10C6
:103A40000A9981F83E000A99086C40F02000086449
:103A500062B6FFE70A99002081F83C00FFE70120E9
:103A60008DF82F008AE0FFE70A980068406900F0AF
:103A700004010020B0EB910FD5D0FFE70A98016850
:103A8000086840F4007008600A98006800690A99A4
:103A9000496A08700A99486A013048620A99088D93
:103AA000013808850A99488D0138488562B60A9818
:103AB000006800690A99496A08700A99486A0130E1
:103AC00048620A99088D013808850A99488D01389D
:103AD0004885FFE7FFE73AE00A981299059A02F055
:103AE000B5FE20B1FFE701208DF82F0046E00A98CF
:103AF000006800690A99496A08700A99486A0130A1
:103B000048620A99088D013808850A99488D01385C
:103B100048850A980068406900F004010120B0EB74
:103B2000910F13D1FFE70A98006800690A99496A62
:103B300008700A99486A013048620A99088D01386C
:103B400008850A99488D01384885FFE7FFE7B1E607
:103B50000A99202081F83D000A99002081F83E0052
:103B6000FFE70A99002081F83C00FFE700208DF86C
:103B70002F0003E002208DF82F00FFE79DF82F00B3
:103B800010B080BD80B588B0DDF828C00690ADF8D3
:103B900016100492ADF80E30FFF74AFC029006981A
:103BA00090F83D00202840F0E980FFE70698029950
:103BB0006A4611600221C0F210010122192302F0AD
:103BC0005DFD20B1FFE702208DF81F00DAE0FFE77E
:103BD000069890F83C00012804D1FFE702208DF8F8
:103BE0001F00CFE00699012081F83C00FFE7FFE7C6
:103BF000069800680068C00738B9FFE706980168B2
:103C0000086840F001000860FFE70698016808684E
:103C100020F4006008600699212081F83D00069993
:103C2000102081F83E000699002008640498069947
:103C30004862BDF80E00069948850698408D0699A1
:103C4000088506990020CFF6FF70C8620698BDF877
:103C500016100A9A029B02F0ABFA20B1FFE701208E
:103C60008DF81F008EE0FFE70020019006980068A5
:103C70004069019006980068806901900198FFE70B
:103C8000FFE70698008D002860D0FFE706980A99A4
:103C9000029A02F03FFE80B1FFE70698006C04280C
:103CA00007D1FFE706980168086840F400700860D3
:103CB000FFE701208DF81F0064E006980168406A64
:103CC000007808610699486A013048620699488D73
:103CD000013848850699088D0138088506980068DE
:103CE000406900F004010120B0EB910F16D1FFE70D
:103CF0000698008D90B1FFE706980168406A007849
:103D000008610699486A013048620699488D013871
:103D100048850699088D01380885FFE706980A99B5
:103D2000029A02F05FFC80B1FFE70698006C04285D
:103D300007D1FFE706980168086840F40070086042
:103D4000FFE701208DF81F001CE09AE70698016844
:103D5000086840F4007008600699202081F83D0052
:103D60000699002081F83E00FFE70699002081F8BF
:103D70003C00FFE700208DF81F0003E002208DF8D3
:103D80001F00FFE79DF81F0008B080BD10B590B080
:103D9000844614981398DDF848E0CDF828C0ADF8B3
:103DA0002610ADF82420ADF82230ADF82000002018
:103DB0000790FFF73DFB06900A9890F83D002028F9
:103DC00040F03F82FFE70A9806996A461160022197
:103DD000C0F210010122192302F050FC20B1FFE7CC
:103DE00002208DF82F0030E2FFE70A9890F83C009F
:103DF000012804D1FFE702208DF82F0025E20A995F
:103E0000012081F83C00FFE7FFE70A98006800689E
:103E1000C00738B9FFE70A980168086840F0010058
:103E20000860FFE70A980168086820F400600860ED
:103E30000A99222081F83D000A99402081F83E002D
:103E40000A990020086412980A994862BDF8200077
:103E50000A9948850A98408D0A9908850A99002090
:103E6000CFF6FF70C8620A98BDF82610BDF824206E
:103E7000BDF82230DDF850C0069CEE46CEF8044076
:103E8000CEF800C002F01EFA20B1FFE701208DF845
:103E90002F00DAE10A98008DA0B9FFE7FFE70020C4
:103EA00005900A980068406905900A980068806942
:103EB00005900598FFE70A980168086840F40070CB
:103EC00008605DE00A98008D01281FD1FFE70A987D
:103ED0000168086820F480600860EFF3108072B613
:103EE0000F90FFE7002004900A9800684069049052
:103EF0000A980068806904900498FFE70A980168AE
:103F0000086840F40070086062B638E00A98008DD6
:103F100002281FD1FFE70A980168086840F4006092
:103F20000860EFF3108072B60E90FFE70020039058
:103F30000A980068406903900A98006880690390B5
:103F40000398FFE70A980168086820F48060086019
:103F500062B613E00A980168086840F4806008605F
:103F6000FFE7002002900A980068406902900A98D2
:103F70000068806902900298FFE7FFE7FFE7FFE72C
:103F8000FFE70A98008D002800F04981FFE70A98B2
:103F9000008D032800F20781FFE70A98008D0128B1
:103FA0001ED1FFE70A981499069A02F04FFC20B13F
:103FB000FFE701208DF82F0047E10A9800680069AB
:103FC0000A99496A08700A99486A013048620A9950
:103FD000088D013808850A99488D01384885E1E047
:103FE0000A98008D022841D1FFE70A98149B069990
:103FF0006A4611600421C0F20101002202F03EFB7A
:1040000020B1FFE701208DF82F001EE1EFF31080B3
:1040100072B60D900A980168086840F40070086054
:104020000A98006800690A99496A08700A99486AFA
:10403000013048620A99088D013808850A99488D2F
:104040000138488562B60A98006800690A99496A89
:1040500008700A99486A013048620A99088D013847
:1040600008850A99488D013848859AE00A98149B7A
:1040700006996A4611600421C0F20101002202F093
:10408000FDFA20B1FFE701208DF82F00DDE00A984E
:104090000168086820F480600860EFF3108072B651
:1040A0000C900A98006800690A99496A08700A9990
:1040B000486A013048620A99088D013808850A99D2
:1040C000488D0138488540F20C00C2F200000068BB
:1040D00048F21F51C5F2EB11A0FB0110C00844F6D5
:1040E000D351C1F26201A0FB011080092321484392
:1040F0000790FFE70798013807900798D0B9FFE7C6
:104100000A99002008630A9A202182F83D100A9932
:1041100081F83E000A99086C40F02000086462B6FD
:10412000FFE70A99002081F83C00FFE701208DF8A5
:104130002F008AE0FFE70A980068406900F0040158
:104140000020B0EB910FD5D0FFE70A98016808680E
:1041500040F4007008600A98006800690A99496A8A
:1041600008700A99486A013048620A99088D013836
:1041700008850A99488D0138488562B60A98006812
:1041800000690A99496A08700A99486A01304862C8
:104190000A99088D013808850A99488D01384885A3
:1041A000FFE7FFE73AE00A981499069A02F04EFBFF
:1041B00020B1FFE701208DF82F0046E00A98006843
:1041C00000690A99496A08700A99486A0130486288
:1041D0000A99088D013808850A99488D0138488563
:1041E0000A980068406900F004010120B0EB910FCB
:1041F00013D1FFE70A98006800690A99496A0870B4
:104200000A99486A013048620A99088D0138088580
:104210000A99488D01384885FFE7FFE7B1E60A991A
:10422000202081F83D000A99002081F83E00FFE738
:104230000A99002081F83C00FFE700208DF82F004C
:1042400003E002208DF82F00FFE79DF82F0010B04B
:1042500010BD000010B588B084460C980B98DDF8AE
:1042600028E0CDF818C0ADF81610ADF81420ADF860
:104270001230ADF81000FFF7DBF80390069890F8C5
:104280003D00202840F0E680FFE7069803996A4643
:1042900011600221C0F210010122192302F0EEF98F
:1042A00020B1FFE702208DF81F00D7E0FFE7069856
:1042B00090F83C00012804D1FFE702208DF81F0090
:1042C000CCE00699012081F83C00FFE7FFE7069863
:1042D00000680068C00738B9FFE7069801680868F9
:1042E00040F001000860FFE706980168086820F4C4
:1042F000006008600699212081F83D000699402061
:1043000081F83E000699002008640A9806994862E0
:10431000BDF81000069948850698408D06990885D5
:1043200006990020CFF6FF70C8620698BDF81610F7
:10433000BDF81420BDF81230DDF830C0039CEE4605
:10434000CEF80440CEF800C002F0AEF820B1FFE78E
:1043500001208DF81F0081E0FFE70698008D0028FE
:1043600049D0FFE706980C99039A02F0D3FA80B17E
:10437000FFE70698006C042807D1FFE7069801685C
:10438000086840F400700860FFE701208DF81F0006
:1043900064E006980168406A007808610699486AF6
:1043A000013048620699088D013808850699488DC4
:1043B0000138488506980068406900F00401012032
:1043C000B0EB910F16D1FFE70698008D90B1FFE793
:1043D00006980168406A007808610699486A0130C9
:1043E00048620699088D013808850699488D01387C
:1043F0004885FFE7B1E706980C99039A02F0F2F8B6
:1044000080B1FFE70698006C042807D1FFE7069803
:104410000168086840F400700860FFE701208DF82B
:104420001F001BE006980168086840F400700860EF
:104430000699202081F83D000699002081F83E0071
:10444000FFE70699002081F83C00FFE700208DF887
:104450001F0003E002208DF81F00FFE79DF81F00FA
:1044600008B010BD80B588B0079000200690059078
:10447000049003900798006845F20041C4F20001DF
:1044800088422CD1FFE7FFE741F21800C4F2020096
:10449000016841F008010160006800F00800029026
:1044A0000298FFE7C020039012200490032006909A
:1044B00040F60040C4F2010003A9FEF7E5FDFFE766
:1044C00041F21C00C4F20200016841F400110160D5
:1044D000006800F4001001900198FFE7FFE708B0C2
:1044E00080BD000040F21200C2F20000027840F2EB
:1044F0005431C2F20001086810440860704700009F
:1045000080B542F20001C4F20201086840F01000D8
:104510000860032000F096F80F2000F005F800F086
:104520003BF8002080BD000080B582B0009040F2D2
:104530000C00C2F20000006840F21201C2F2000159
:104540000A784FF47A71B1FBF2F1B0FBF1F001F0AF
:1045500035FB20B1FFE701208DF8070018E0009837
:104560000F280DD8FFE700994FF0FF30002200F030
:104570004FF8009840F21401C2F20001086003E015
:1045800001208DF8070003E000208DF80700FFE709
:104590009DF8070002B080BD83B0FFE741F218002C
:1045A000C4F20200016841F001010160006800F0FE
:1045B000010002900298FFE7FFE741F21C00C4F2FD
:1045C0000200016841F080510160006800F08050F5
:1045D00001900198FFE7FFE70421C4F20101086898
:1045E0000090009820F0E0600090009840F000708B
:1045F000009000980860FFE703B0704780B582B074
:104600008DF807009DF9070003F016FB02B080BD8E
:1046100080B586B08DF817000491039200200290B7
:1046200003F022FB02909DF9170001900298049973
:10463000039A02F04FFF0146019803F01DFB06B0FC
:1046400080BD000080B582B00190019803F036FB78
:1046500002B080BD80B586B0049000200390029027
:1046600004980078C007002800F0AC80FFE7002025
:104670008DF8070041F21C00C4F202000068C0007F
:10468000002813D4FFE7FFE741F21C00C4F2020048
:10469000016841F080510160006800F08050009096
:1046A0000098FFE701208DF80700FFE747F20000C0
:1046B000C4F200000068C005002822D4FFE747F2DA
:1046C0000001C4F20001086840F480700860FEF741
:1046D000AFFE0390FFE747F20000C4F2000000685D
:1046E000C00500280CD4FFE7FEF7A2FE0399401A8C
:1046F000652804D3FFE703208DF817008AE0EAE776
:10470000FFE741F22000C4F20200006800F44070AC
:1047100002900298E0B3FFE702980499496801F417
:104720004071884234D0FFE741F22001C4F2020117
:10473000086820F44070029040F24042C4F24222E5
:104740000120106000201060029808609DF80800A9
:10475000C007E0B1FFE7FEF76BFE0390FFE741F211
:104760002000C4F202000068800700280ED4FFE792
:10477000FEF75EFE0399401A41F28931884204D364
:10478000FFE703208DF8170044E0E8E7FFE7FFE7C5
:1047900041F22001C4F20201086820F44070049A3A
:1047A0005268104308609DF80700012809D1FFE70F
:1047B00041F21C01C4F20201086820F08050086038
:1047C000FFE7FFE704980078800700280CD5FFE793
:1047D00041F20401C4F20201086820F44040049A46
:1047E000926810430860FFE704980078C00600282C
:1047F0000CD5FFE741F20401C4F20201086820F47D
:104800008000049AD26810430860FFE700208DF80A
:104810001700FFE79DF8170006B080BD80B584B093
:1048200002900191029820B9FFE701208DF80F0056
:104830001BE1019842F20001C4F20201096801F093
:104840000701884216D9FFE742F20000C4F20200D5
:10485000016821F00701019A11430160006800F02E
:1048600007000199884204D0FFE701208DF80F006E
:10487000FBE0FFE702980078800700282AD5FFE7D1
:10488000029800784007002809D5FFE741F20401AB
:10489000C4F20201086840F4E0600860FFE7029893
:1048A00000780007002809D5FFE741F20401C4F2AF
:1048B0000201086840F460500860FFE741F204011B
:1048C000C4F20201086820F0F000029A92681043D6
:1048D0000860FFE702980078C007002860D0FFE773
:1048E0000298406801280ED1FFE741F20000C4F2AF
:1048F000020000688003002804D4FFE701208DF83F
:104900000F00B2E021E00298406802280ED1FFE7D4
:1049100041F20000C4F2020000688001002804D4C3
:10492000FFE701208DF80F009FE00DE041F200004D
:10493000C4F2020000688007002804D4FFE70120C9
:104940008DF80F0091E0FFE7FFE741F20401C4F2A8
:104950000201086820F00300029A526810430860C0
:10496000FEF766FD0090FFE741F20400C4F202008A
:10497000006800F00C0002994968B0EB810F0ED07E
:10498000FFE7FEF755FD0099401A41F28931884250
:1049900004D3FFE703208DF80F0066E0E4E7FFE7AC
:1049A000019842F20001C4F20201096801F0070116
:1049B000884216D2FFE742F20000C4F2020001680A
:1049C00021F00701019A11430160006800F007001F
:1049D0000199884204D0FFE701208DF80F0044E0E0
:1049E000FFE702980078400700280CD5FFE741F266
:1049F0000401C4F20201086820F4E060029AD2685F
:104A000010430860FFE702980078000700280DD5E2
:104A1000FFE741F20401C4F20201086820F460508B
:104A2000029A126940EAC2000860FFE700F03AF813
:104A300041F20401C4F202010968C9B20A094AF24A
:104A4000BC21C0F60001895CC84040F20C01C2F2F2
:104A50000001086040F21400C2F200000068FFF795
:104A600063FD00208DF80F00FFE79DF80F0004B0F4
:104A700080BD000040F20C00C2F2000000687047E8
:104A800080B5FFF7F7FF41F20401C4F202010968A3
:104A9000C1F302224AF2CC21C0F60001895CC84071
:104AA00080BD00008BB040F60E70C1F210000A907D
:104AB00040F60A30C0F60C50099040F20670C0F67D
:104AC0000810089040F20230C0F20450079040F203
:104AD0000120ADF81A000020059004900390029088
:104AE000019041F20400C4F20200006805900598AC
:104AF00000F00C0001460091E0B3FFE700980428A5
:104B000004D0FFE70098082806D034E041F20020E6
:104B1000C0F27A00019034E00598C0F3834107A801
:104B2000405C02909DF81600C007C0B1FFE741F25B
:104B30000400C4F20200006800F400310DF11A0014
:104B400040EA514000780490029841F20021C0F2FE
:104B50007A0148430499B0FBF1F0039007E0029812
:104B600040F60011C0F23D0148430390FFE703986F
:104B7000019006E0FFE741F20020C0F27A000190C8
:104B8000FFE701980BB0704780B586B00490049899
:104B900020B9FFE701208DF817002EE30498007874
:104BA000C007002800F0AE80FFE741F20400C4F225
:104BB0000200006800F00C00042813D0FFE741F267
:104BC0000400C4F20200006800F00C0008281BD1A9
:104BD000FFE741F20400C4F202000068C0030028AD
:104BE00012D5FFE741F20000C4F202000068800322
:104BF000002808D5FFE70498406820B9FFE70120A6
:104C00008DF81700F9E27CE0FFE704984068B0F502
:104C1000803F09D1FFE741F20001C4F202010868B8
:104C200040F48030086032E00498406868B9FFE7DB
:104C300041F20001C4F20201086820F480300860EB
:104C4000086820F48020086020E004984068B0F5EF
:104C5000A02F0DD1FFE741F20001C4F20201086864
:104C600040F480200860086840F4803008600CE060
:104C700041F20001C4F20201086820F480300860AB
:104C8000086820F480200860FFE7FFE7FFE7FFE700
:104C900004984068D0B1FFE7FEF7CAFB0390FFE736
:104CA00041F20000C4F202000068800300280CD426
:104CB000FFE7FEF7BDFB0399401A652804D3FFE721
:104CC00003208DF8170098E2EAE719E0FEF7B0FB41
:104CD0000390FFE741F20000C4F202000068800385
:104CE00000280CD5FFE7FEF7A3FB0399401A6528BF
:104CF00004D3FFE703208DF817007EE2EAE7FFE721
:104D0000FFE7FFE7049800788007002840F18D80D6
:104D1000FFE741F20400C4F20200006810F00C0F3B
:104D200013D0FFE741F20400C4F20200006800F073
:104D30000C00082829D1FFE741F20400C4F2020068
:104D40000068C003002820D4FFE741F20000C4F24D
:104D5000020000688007002809D5FFE70498006971
:104D6000012804D0FFE701208DF8170045E241F249
:104D70000001C4F20201086820F0F800049A5269A8
:104D800040EAC2000860FFE74EE00498006958B3AB
:104D9000FFE70021C4F2422101200860FEF748FB32
:104DA0000390FFE741F20000C4F2020000688007B0
:104DB00000280CD4FFE7FEF73BFB0399401A0328B9
:104DC00004D3FFE703208DF8170016E2EAE741F26B
:104DD0000001C4F20201086820F0F800049A526948
:104DE00040EAC20008601EE00021C4F24221002017
:104DF0000860FEF71DFB0390FFE741F20000C4F2DC
:104E000002000068800700280CD5FFE7FEF710FBC2
:104E10000399401A032804D3FFE703208DF81700F5
:104E2000EBE1EAE7FFE7FFE7FFE704980078000718
:104E3000002848D5FFE70498806918B3FFE740F2DF
:104E40008041C4F2422101200860FEF7F1FA03908C
:104E5000FFE741F22400C4F2020000688007002846
:104E60000CD4FFE7FEF7E4FA0399401A032804D3B1
:104E7000FFE703208DF81700BFE1EAE7012002F009
:104E800061FB1FE040F28041C4F242210020086033
:104E9000FEF7CEFA0390FFE741F22400C4F20200CD
:104EA0000068800700280CD5FFE7FEF7C1FA0399D8
:104EB000401A032804D3FFE703208DF817009CE174
:104EC000EAE7FFE7FFE7049800784007002840F191
:104ED000D880FFE700208DF8070041F21C00C4F2E3
:104EE00002000068C000002813D4FFE7FFE741F28A
:104EF0001C00C4F20200016841F0805101600068AA
:104F000000F0805000900098FFE701208DF8070026
:104F1000FFE747F20000C4F200000068C005002867
:104F200022D4FFE747F20001C4F20001086840F410
:104F300080700860FEF77CFA0390FFE747F20000FC
:104F4000C4F200000068C00500280CD4FFE7FEF79B
:104F50006FFA0399401A652804D3FFE703208DF800
:104F600017004AE1EAE7FFE7FFE70498C068012875
:104F700009D1FFE741F22001C4F20201086840F0C4
:104F80000100086031E00498C06868B9FFE741F2A9
:104F90002001C4F20201086820F0010008600868DE
:104FA00020F0040008601FE00498C06805280DD1B7
:104FB000FFE741F22001C4F20201086840F004005A
:104FC0000860086840F0010008600CE041F2200130
:104FD000C4F20201086820F001000860086820F0AF
:104FE00004000860FFE7FFE7FFE7FFE70498C068F9
:104FF000E0B1FFE7FEF71CFA0390FFE741F2200063
:10500000C4F202000068800700280ED4FFE7FEF714
:105010000FFA0399401A41F28931884204D3FFE71D
:1050200003208DF81700E8E0E8E71BE0FEF700FA40
:105030000390FFE741F22000C4F2020000688007FD
:1050400000280ED5FFE7FEF7F3F90399401A41F265
:105050008931884204D3FFE703208DF81700CCE0A4
:10506000E8E7FFE79DF80700012809D1FFE741F2D3
:105070001C01C4F20201086820F080500860FFE7BC
:10508000FFE70498C069002800F0B380FFE741F211
:105090000400C4F20200006800F00C00082800F0D0
:1050A0008280FFE70498C06902285CD1FFE7602195
:1050B000C4F2422100200860FEF7BAF90390FFE72E
:1050C00041F20000C4F202000068800100280CD503
:1050D000FFE7FEF7ADF90399401A032804D3FFE771
:1050E00003208DF8170088E0EAE70498006AB0F51D
:1050F000803F0CD1FFE741F20401C4F202010868CD
:1051000020F40030049A926810430860FFE741F2EF
:105110000401C4F20201086820F47410049B1A6AA6
:105120005B6A1A43104308606021C4F242210120E7
:105130000860FEF77DF90390FFE741F20000C4F23A
:1051400002000068800100280CD4FFE7FEF770F928
:105150000399401A032804D3FFE703208DF81700B2
:105160004BE0EAE71EE06021C4F242210020086023
:10517000FEF75EF90390FFE741F20000C4F202007F
:105180000068800100280CD5FFE7FEF751F903996C
:10519000401A032804D3FFE703208DF817002CE002
:1051A000EAE7FFE724E00498C069012804D1FFE79B
:1051B00001208DF8170020E041F20400C4F2020043
:1051C00000680290029800F480300499096A8842CD
:1051D00008D1FFE7029800F470100499496A8842E8
:1051E00004D0FFE701208DF8170006E0FFE7FFE796
:1051F000FFE700208DF81700FFE79DF8170006B0C5
:1052000080BD000081B00090009890F8510001B07E
:105210007047000080B584B00290029820B9FFE783
:1052200001208DF80F006DE00298406A60B9FFE739
:1052300002984068B0F5827F01D1FFE703E0029950
:105240000020C861FFE705E002990020086102998B
:105250004861FFE7029900208862029890F85100A7
:1052600040B9FFE70299002081F85000029800F051
:105270004DF8FFE70299022081F851000298016879
:10528000086820F040000860029A01921168506896
:10529000D2F808C0D36800F482700CF4044C604467
:1052A00003F400631844136903F0020318445369BC
:1052B00003F001031844936903F400731844D3699D
:1052C00003F038031844136A03F080031843926A0A
:1052D00002F40052104308600299488B00F0040069
:1052E0000968486002980168C86920F40060C861D4
:1052F000029900204865029A012182F851108DF828
:105300000F00FFE79DF80F0004B080BD80B58AB0A4
:105310000990002008900790069005900998006871
:1053200043F20001C4F20101884237D1FFE7FFE7F1
:1053300041F21800C4F20200016841F4805101609A
:10534000006800F4805004900498FFE7FFE741F202
:105350001800C4F20200016841F004010160006815
:1053600000F0040003900398FFE7A02005900220BE
:1053700006900320089040F60000C4F2010001905E
:1053800005A90291FDF780FE01980299402205923D
:10539000002206920792FDF777FEFFE70AB080BD74
:1053A00080B588B006900591ADF8122003930020D7
:1053B0008DF8070006984068B0F5827F16D1FFE7A8
:1053C0000698806890B9FFE70699042081F851009B
:1053D0000698059ABDF812300399EC46CCF80010F7
:1053E000114600F037FA8DF81F00EDE0FFE7069850
:1053F00090F85000012804D1FFE702208DF81F002B
:10540000E2E00699012081F85000FFE7FFE7FEF790
:105410000FF80290069890F85100012804D0FFE799
:1054200002208DF80700C0E0059820B1FFE7BDF825
:10543000120020B9FFE701208DF80700B5E00699BA
:10544000042081F851000699002048650599069AC4
:105450009163BDF81210069A9187BDF81210069A52
:10546000D18706990863069988860699C8860699A1
:1054700008640699486406988068B0F5004F0DD11D
:10548000FFE706980168086820F040000860069869
:105490000168086820F480400860FFE7069800680B
:1054A000006800F04000402807D0FFE70698016838
:1054B000086840F040000860FFE70698C06880BBBD
:1054C000FFE7FFE70698C08F50B3FFE70698006834
:1054D0008068C00778B1FFE706980068007B0699EE
:1054E000896B08700699886B013088630699C88FAC
:1054F0000138C88713E0FDF79BFF0299401A039912
:10550000884204D3FFE70398013018B9FFE70398F6
:1055100020B9FFE703208DF8070046E0FFE7D1E759
:105520002FE0FFE70698C08F50B3FFE706980068AA
:105530008068C00778B1FFE706980068C0680699E0
:10554000896B08800699886B023088630699C88F3A
:105550000138C88713E0FDF76BFF0299401A0399E1
:10556000884204D3FFE70398013018B9FFE7039896
:1055700020B9FFE703208DF8070016E0FFE7D1E729
:10558000FFE706980399029A02F066F820B1FFE758
:10559000069920204865FFE70698406D20B1FFE797
:1055A00001208DF80700FFE7FFE70699012081F849
:1055B0005100FFE70699002081F85000FFE79DF8B1
:1055C00007008DF81F00FFE79DF81F0008B080BDA1
:1055D00080B588B006900591ADF8122003930020A5
:1055E0008DF80700FFE7069890F85000012804D1D5
:1055F000FFE702208DF81F0028E10699012081F8BD
:105600005000FFE7FFE7FDF713FF0290BDF812001F
:10561000ADF80400069890F85100012804D0FFE787
:1056200002208DF8070002E1059820B1FFE7BDF8E0
:10563000120020B9FFE701208DF80700F7E0069976
:10564000032081F851000699002048650599069AC3
:105650001163BDF81210069A9186BDF81210069AD1
:10566000D18606998863069988870699C88706991E
:1056700048640699086406988068B0F5004F0DD11B
:10568000FFE706980168086820F040000860069867
:105690000168086840F480400860FFE706980068E9
:1056A000006800F04000402807D0FFE70698016836
:1056B000086840F040000860FFE70698C068B0F551
:1056C000006F47D1FFE70698406828B1FFE7BDF8B3
:1056D000040001280ED1FFE706980168006B0088DE
:1056E000C8600699086B023008630699C88E0138B5
:1056F000C886FFE7FFE70698C08E50B3FFE706981D
:1057000000688068800700280ED5FFE706980168CA
:10571000006B0088C8600699086B02300863069920
:10572000C88E0138C88613E0FDF782FE0299401A40
:105730000399884204D3FFE70398013018B9FFE7C3
:10574000039820B9FFE703208DF807006FE0FFE71B
:10575000D1E746E00698406828B1FFE7BDF80400AD
:1057600001280ED1FFE706980168006B00780873E6
:105770000699086B013008630699C88E0138C886FF
:10578000FFE7FFE70698C08E50B3FFE70698006872
:105790008068800700280ED5FFE706980168006B37
:1057A000007808730699086B013008630699C88E63
:1057B0000138C88613E0FDF73BFE0299401A0399B1
:1057C000884204D3FFE70398013018B9FFE7039834
:1057D00020B9FFE703208DF8070028E0FFE7D1E7B5
:1057E000FFE706980399029A01F092FF20B1FFE7C4
:1057F000069920204865FFE70698806870B9FFE7A2
:10580000FFE70020009006980068C06800900698A6
:105810000068806800900098FFE7FFE70698406DF9
:1058200020B1FFE701208DF80700FFE7FFE70699A9
:10583000012081F85100FFE70699002081F850000F
:10584000FFE79DF807008DF81F00FFE79DF81F0098
:1058500008B080BD80B58EB0DDF840C00C900B91D3
:105860000A92ADF826300120059000208DF8130033
:10587000FFE70C9890F85000012804D1FFE70220C0
:105880008DF8370095E10C99012081F85000FFE771
:10589000FFE7FDF7CDFD06900C9890F851008DF8CC
:1058A0001F000C9840680890BDF82600ADF8240051
:1058B0009DF81F00012812D0FFE70898B0F5827FFD
:1058C00009D1FFE70C98806828B9FFE79DF81F0011
:1058D000042804D0FFE702208DF813005AE10B984A
:1058E00038B1FFE70A9820B1FFE7BDF8260020B9DC
:1058F000FFE701208DF813004CE10C9890F851005F
:10590000042805D0FFE70C99052081F85100FFE736
:105910000C99002048650A990C9A9163BDF82610ED
:105920000C9AD187BDF826100C9A91870B990C9A86
:105930001163BDF826100C9AD186BDF826100C9A7A
:1059400091860C9908640C9948640C98006800686A
:1059500000F04000402807D0FFE70C980168086875
:1059600040F040000860FFE70C98C068B0F5006F99
:1059700076D1FFE70C98406828B1FFE7BDF8240016
:1059800001280ED1FFE70C980168006B0088C86001
:105990000C99086B023008630C99C88E0138C886D0
:1059A000FFE7FFE70C98C18E0120029039B9FFE7AD
:1059B0000C98C08F002818BF01200290FFE70298C2
:1059C000C00700284BD0FFE70C980068806880076C
:1059D000002818D5FFE70C98C08EA0B1FFE7059806
:1059E000012810D1FFE70C980168006B0088C8609F
:1059F0000C99086B023008630C99C88E0138C88670
:105A000000200590FFE70C9800688068C007A8B1E7
:105A1000FFE70C98C08F88B1FFE70C980068C0685A
:105A20000C99896B08800C99886B023088630C99FB
:105A3000C88F0138C88701200590FFE7FDF7F8FC03
:105A40000699401A1099884208D3FFE71098013050
:105A500020B1FFE703208DF813009BE0A2E778E078
:105A60000C98406828B1FFE7BDF8240001280ED14A
:105A7000FFE70C980168006B007808730C99086BBD
:105A8000013008630C99C88E0138C886FFE7FFE72C
:105A90000C98C18E0120019039B9FFE70C98C08F96
:105AA000002818BF01200190FFE70198C0070028D7
:105AB0004ED0FFE70C98006880688007002818D552
:105AC000FFE70C98C08EA0B1FFE70598012810D120
:105AD000FFE70C980168006B007808730C99086B5D
