:020000040800F2
:100000007008002089010008692F000831260008C7
:10001000652F0008910200084D370008000000001D
:100020000000000000000000000000004132000855
:100030009502000800000000D92F0008993200083E
:10004000A3010008A3010008A3010008A301000800
:10005000A3010008A3010008A3010008A3010008F0
:10006000A3010008A3010008A3010008A3010008E0
:10007000A3010008A3010008A3010008A3010008D0
:10008000A3010008A3010008A3010008A3010008C0
:10009000A3010008A3010008A3010008A3010008B0
:1000A000A3010008A3010008A3010008A3010008A0
:1000B000A3010008A3010008A3010008A301000890
:1000C000A3010008A3010008A3010008A301000880
:1000D000A30100083D370008A3010008A3010008A0
:1000E00099020008A3010008A301000800F002F82B
:1000F00000F03AF80AA090E8000C82448344AAF188
:100100000107DA4501D100F02FF8AFF2090EBAE885
:100110000F0013F0010F18BFFB1A43F0010318473B
:10012000243A0000443A0000103A24BF78C878C14D
:10013000FAD8520724BF30C830C144BF04680C60ED
:10014000704700000023002400250026103A28BF35
:1001500078C1FBD8520728BF30C148BF0B60704739
:100160001FB51FBD10B510BD00F058F81146FFF7C0
:10017000F7FF03F04DFB00F076F803B4FFF7F2FF52
:1001800003BC00F07DF8000009488047094800479B
:10019000FEE7FEE7FEE7FEE7FEE7FEE7FEE7FEE737
:1001A000FEE7FEE704480549054A064B7047000094
:1001B0000D330008ED0000087002002070080020D8
:1001C00070040020700400204FF0000200B51346B8
:1001D00094469646203922BFA0E80C50A0E80C5067
:1001E000B1F12001BFF4F7AF090728BFA0E80C5018
:1001F00048BF0CC05DF804EB890028BF40F8042B11
:1002000008BF704748BF20F8022B11F0804F18BF7D
:1002100000F8012B7047704770477047754600F033
:100220002BF8AE4605006946534620F00700854688
:1002300018B020B5FFF7B6FFBDE820404FF000062C
:100240004FF000074FF000084FF0000BAC46ACE851
:10025000C009ACE8C009ACE8C009ACE8C00921F0AD
:1002600007018D46704710B50446AFF30080204665
:10027000BDE81040FFF781BF004870471000002024
:1002800001491820ABBEFEE72600020070470000BF
:10029000FFE7FEE77047000080B54FF4806000F094
:1002A00009F980BD81B0EFF3108072B60090FFE7CE
:1002B000FEE7000083B0019000208DF80300019854
:1002C00090F8210002280DD0FFE7019904208863EF
:1002D000FFE70199002081F82000FFE701208DF859
:1002E0000B0021E001980168086820F00E0008600A
:1002F00001980168086820F0010008600198C16B4E
:10030000026C012090404860FFE70199012081F8CC
:100310002100FFE70199002081F82000FFE79DF808
:1003200003008DF80B00FFE79DF80B0003B070474A
:1003300080B588B0079000208DF81B00079890F8D2
:100340002100022807D0FFE70799042088630120D5
:100350008DF81B0076E007980168086820F00E0011
:10036000086007980168086820F001000860079895
:1003700000680821C4F20201884203D1FFE701208E
:10038000059047E0079800681C21C4F202018842EA
:1003900003D1FFE71020049039E00798006830216E
:1003A000C4F20201884204D1FFE74FF48070039049
:1003B0002AE0079800684421C4F20201884204D16F
:1003C000FFE74FF4805002901BE007980068582127
:1003D000C4F20201884204D1FFE74FF4803001905B
:1003E0000CE0079801686C22C4F202024FF08070A2
:1003F000914208BF4FF480100190FFE701980290EE
:10040000FFE702980390FFE703980490FFE7049842
:100410000590FFE705980421C4F2020108600799DE
:10042000012081F82100FFE70799002081F82000D2
:10043000FFE70798406B20B1FFE70798416B8847BB
:10044000FFE7FFE79DF81B0008B080BD80B584B0D2
:10045000039000F007FA0290039801900198013090
:1004600048B1FFE740F20400C2F2000001780198B1
:1004700008440190FFE7FFE700F0F4F90299401A01
:100480000199884201D2FFE7F6E704B080BD000081
:1004900081B0ADF80200BDF80200B0F5806F07D161
:1004A000FFE740F27301C2F2000101200870FFE78C
:1004B00001B0704780B582B0ADF8060040F214403C
:1004C000C4F201000068BDF8061008420CD0FFE736
:1004D000BDF8060040F21441C4F201010860BDF805
:1004E0000600FFF7D5FFFFE702B080BD90B00F9088
:1004F0000E9100200D900990FFE70E9800680D996D
:10050000C840002800F07F81FFE70D990120884056
:100510000C900E9800680C9908400B900B980C9961
:10052000884240F06C81FFE70E98406805900028F3
:1005300051D0FFE7059801283AD0FFE70598022837
:100540003FD0FFE7059803285FD0FFE70598112803
:1005500032D0FFE70598122838D0FFE70598002130
:10056000C1F21101884236D0FFE705980021C1F29F
:10057000120188422FD0FFE705980021C1F2210126
:10058000884228D0FFE705980021C1F22201884265
:1005900021D0FFE705980021C1F2310188421AD02D
:1005A000FFE705980021C1F23201884213D02FE005
:1005B0000E98C06809902CE00E98C068043009902D
:1005C00027E00E98C0680830099022E00E98C068B5
:1005D0000C3009901DE00E98806818B9FFE70420E0
:1005E000099011E00E988068012806D1FFE70820E5
:1005F00009900C980F99086105E0082009900C9863
:100600000F994861FFE7FFE703E00020099000E051
:10061000FFE70B98FF2803D8FFE70F98049003E04B
:100620000F9804300490FFE7049808900B98FF2877
:1006300004D8FFE70D988000039006E00D996FF055
:100640001F0000EB81000390FFE7039807900898D4
:100650000068079A0F219140884309999140084307
:10066000089908600E98C079C006002840F1C6803D
:10067000FFE7FFE741F21800C4F20200016841F011
:1006800001010160006800F0010006900698FFE794
:100690000D9820F003000821C4F2010140580A908F
:1006A0000D9800F0030081000F2000FA01F10A9874
:1006B00088430A900F9840F60001C4F20101884275
:1006C00003D1FFE70020029026E00F9840F600419A
:1006D000C4F20101884203D1FFE70120019018E034
:1006E0000F9841F20001C4F20101884203D1FFE7F3
:1006F000022000900AE00F9941F20042C4F2010288
:100700000420914208BF03200090FFE70098019069
:10071000FFE701980290FFE702980D9901F00301AD
:10072000890000FA01F10A9808430A900A980D9985
:1007300021F003010822C4F2010288500E9880794A
:10074000C00748B1FFE70B9A40F20041C4F2010133
:1007500008681043086008E00B9A40F20041C4F2B8
:100760000101086890430860FFE70E9880798007D0
:10077000002809D5FFE70B9A40F20441C4F20101B9
:1007800008681043086008E00B9A40F20441C4F284
:100790000101086890430860FFE70E988079C00661
:1007A000002809D5FFE70B9A40F20841C4F2010185
:1007B00008681043086008E00B9A40F20841C4F250
:1007C0000101086890430860FFE70E988079800671
:1007D000002809D5FFE70B9A40F20C41C4F2010151
:1007E00008681043086008E00B9A40F20C41C4F21C
:1007F0000101086890430860FFE7FFE7FFE70D98F5
:1008000001300D9079E610B07047000083B002907F
:10081000ADF806100298C0680090009ABDF8060076
:1008200002EA0001904340EA01400299086103B0E6
:100830007047000082B00190ADF802108DF80120E1
:100840009DF8010028B1FFE7BDF802000199086199
:1008500005E0BDF80200000401990861FFE702B05D
:100860007047000040F26C20C2F200000068704740
:1008700040F20400C2F20000027840F26C21C2F2A1
:1008800000010868104408607047000080B542F21B
:100890000001C4F20201086840F010000860032063
:1008A00000F096F80F2000F005F800F03BF800206B
:1008B00080BD000080B582B0009040F20000C2F21E
:1008C0000000006840F20401C2F200010A784FF40F
:1008D0007A71B1FBF2F1B0FBF1F001F063FA20B1F3
:1008E000FFE701208DF8070018E000980F280DD8C9
:1008F000FFE700994FF0FF30002200F04FF800981A
:1009000040F20801C2F20001086003E001208DF806
:10091000070003E000208DF80700FFE79DF80700BF
:1009200002B080BD83B0FFE741F21800C4F20200BC
:10093000016841F001010160006800F001000290CF
:100940000298FFE7FFE741F21C00C4F202000168D1
:1009500041F080510160006800F0805001900198E2
:10096000FFE7FFE70421C4F2010108680090009846
:1009700020F0E0600090009840F000700090009837
:100980000860FFE703B0704780B582B08DF80700BC
:100990009DF9070002F0DCFE02B080BD80B586B094
:1009A0008DF81700049103920020029002F0E8FEF7
:1009B00002909DF91700019002980499039A02F0A1
:1009C000D5FA0146019802F0E3FE06B080BD0000B2
:1009D00080B582B00190019802F0FCFE02B080BDAB
:1009E00080B584B002900191029820B9FFE7012000
:1009F0008DF80F001BE1019842F20001C4F20201E0
:100A0000096801F00701884216D9FFE742F20000A9
:100A1000C4F20200016821F00701019A114301604C
:100A2000006800F007000199884204D0FFE7012028
:100A30008DF80F00FBE0FFE70298007880070028A0
:100A40002AD5FFE7029800784007002809D5FFE77C
:100A500041F20401C4F20201086840F4E060086059
:100A6000FFE7029800780007002809D5FFE741F268
:100A70000401C4F20201086840F460500860FFE716
:100A800041F20401C4F20201086820F0F000029A69
:100A9000926810430860FFE702980078C0070028BA
:100AA00060D0FFE70298406801280ED1FFE741F2CD
:100AB0000000C4F2020000688003002804D4FFE7AD
:100AC00001208DF80F00B2E021E002984068022872
:100AD0000ED1FFE741F20000C4F20200006880017D
:100AE000002804D4FFE701208DF80F009FE00DE0FF
:100AF00041F20000C4F2020000688007002804D41C
:100B0000FFE701208DF80F0091E0FFE7FFE741F2DA
:100B10000401C4F20201086820F00300029A52683E
:100B200010430860FFF79EFE0090FFE741F20400CB
:100B3000C4F20200006800F00C0002994968B0EBB2
:100B4000810F0ED0FFE7FFF78DFE0099401A41F2AA
:100B50008931884204D3FFE703208DF80F0066E057
:100B6000E4E7FFE7019842F20001C4F202010968DC
:100B700001F00701884216D2FFE742F20000C4F2FA
:100B80000200016821F00701019A11430160006829
:100B900000F007000199884204D0FFE701208DF89A
:100BA0000F0044E0FFE702980078400700280CD5CA
:100BB000FFE741F20401C4F20201086820F4E0609A
:100BC000029AD26810430860FFE702980078000795
:100BD00000280DD5FFE741F20401C4F202010868C4
:100BE00020F46050029A126940EAC2000860FFE7F0
:100BF00000F04CF841F20401C4F202010968C9B2E4
:100C00000A0943F62A31C0F60001895CC84040F267
:100C10000001C2F20001086040F20800C2F20000C8
:100C20000068FFF747FE00208DF80F00FFE79DF8F2
:100C30000F0004B080BD000040F20000C2F20000CE
:100C40000068704780B5FFF7F7FF41F20401C4F276
:100C500002010968C1F3022243F63A31C0F60001ED
:100C6000895CC84080BD000080B5FFF7E5FF41F218
:100C70000401C4F202010968C1F3C22243F63A3109
:100C8000C0F60001895CC84080BD00008BB040F612
:100C90000E70C1F210000A9040F60A30C0F60C50F7
:100CA000099040F20670C0F60810089040F2023039
:100CB000C0F20450079040F20120ADF81A00002065
:100CC0000590049003900290019041F20400C4F258
:100CD000020000680590059800F00C0001460091A4
:100CE000E0B3FFE70098042804D0FFE70098082845
:100CF00006D034E041F20020C0F27A00019034E0E6
:100D00000598C0F3834107A8405C02909DF8160047
:100D1000C007C0B1FFE741F20400C4F2020000685E
:100D200000F400310DF11A0040EA514000780490BF
:100D3000029841F20021C0F27A0148430499B0FBC5
:100D4000F1F0039007E0029840F60011C0F23D0177
:100D500048430390FFE70398019006E0FFE741F264
:100D60000020C0F27A000190FFE701980BB07047B5
:100D700080B586B00490049820B9FFE701208DF873
:100D800017002EE304980078C007002800F0AE801A
:100D9000FFE741F20400C4F20200006800F00C001A
:100DA000042813D0FFE741F20400C4F202000068F7
:100DB00000F00C0008281BD1FFE741F20400C4F248
:100DC00002000068C003002812D5FFE741F20000CE
:100DD000C4F2020000688003002808D5FFE70498E9
:100DE000406820B9FFE701208DF81700F9E27CE0A8
:100DF000FFE704984068B0F5803F09D1FFE741F272
:100E00000001C4F20201086840F48030086032E05A
:100E10000498406868B9FFE741F20001C4F202019A
:100E2000086820F480300860086820F4802008609A
:100E300020E004984068B0F5A02F0DD1FFE741F203
:100E40000001C4F20201086840F4802008600868CC
:100E500040F4803008600CE041F20001C4F202016D
:100E6000086820F480300860086820F4802008605A
:100E7000FFE7FFE7FFE7FFE704984068D0B1FFE72F
:100E8000FFF7F0FC0390FFE741F20000C4F202001C
:100E90000068800300280CD4FFE7FFF7E3FC039908
:100EA000401A652804D3FFE703208DF8170098E265
:100EB000EAE719E0FFF7D6FC0390FFE741F20000F4
:100EC000C4F202000068800300280CD5FFE7FFF79A
:100ED000C9FC0399401A652804D3FFE703208DF865
:100EE00017007EE2EAE7FFE7FFE7FFE704980078F4
:100EF0008007002840F18D80FFE741F20400C4F232
:100F00000200006810F00C0F13D0FFE741F204005C
:100F1000C4F20200006800F00C00082829D1FFE7A5
:100F200041F20400C4F202000068C003002820D48B
:100F3000FFE741F20000C4F20200006880070028C9
:100F400009D5FFE704980069012804D0FFE70120D4
:100F50008DF8170045E241F20001C4F20201086871
:100F600020F0F800049A526940EAC2000860FFE7E6
:100F70004EE00498006958B3FFE70021C4F2422113
:100F800001200860FFF76EFC0390FFE741F20000CC
:100F9000C4F202000068800700280CD4FFE7FFF7C6
:100FA00061FC0399401A032804D3FFE703208DF85E
:100FB000170016E2EAE741F20001C4F202010868F4
:100FC00020F0F800049A526940EAC20008601EE06E
:100FD0000021C4F2422100200860FFF743FC039087
:100FE000FFE741F20000C4F2020000688007002819
:100FF0000CD5FFE7FFF736FC0399401A032804D30A
:10100000FFE703208DF81700EBE1EAE7FFE7FFE7D2
:10101000FFE7049800780007002848D5FFE7049808
:10102000806918B3FFE740F28041C4F242210120F9
:101030000860FFF717FC0390FFE741F22400C4F2B9
:1010400002000068800700280CD4FFE7FFF70AFCC5
:101050000399401A032804D3FFE703208DF81700F3
:10106000BFE1EAE7012001F0B9FF1FE040F2804153
:10107000C4F2422100200860FFF7F4FB0390FFE771
:1010800041F22400C4F202000068800700280CD559
:10109000FFE7FFF7E7FB0399401A032804D3FFE7B4
:1010A00003208DF817009CE1EAE7FFE7FFE70498CB
:1010B00000784007002840F1D880FFE700208DF835
:1010C000070041F21C00C4F202000068C0000028C2
:1010D00013D4FFE7FFE741F21C00C4F202000168ED
:1010E00041F080510160006800F08050009000984D
:1010F000FFE701208DF80700FFE747F20000C4F288
:1011000000000068C005002822D4FFE747F2000174
:10111000C4F20001086840F480700860FFF7A2FB89
:101120000390FFE747F20000C4F200000068C0052A
:1011300000280CD4FFE7FFF795FB0399401A6528B8
:1011400004D3FFE703208DF817004AE1EAE7FFE741
:10115000FFE70498C068012809D1FFE741F22001A8
:10116000C4F20201086840F00100086031E0049810
:10117000C06868B9FFE741F22001C4F202010868C3
:1011800020F001000860086820F0040008601FE0FB
:101190000498C06805280DD1FFE741F22001C4F290
:1011A0000201086840F004000860086840F001008F
:1011B00008600CE041F22001C4F20201086820F04E
:1011C00001000860086820F004000860FFE7FFE7FE
:1011D000FFE7FFE70498C068E0B1FFE7FFF742FBD5
:1011E0000390FFE741F22000C4F20200006880078C
:1011F00000280ED4FFE7FFF735FB0399401A41F2B0
:101200008931884204D3FFE703208DF81700E8E016
:10121000E8E71BE0FFF726FB0390FFE741F2200021
:10122000C4F202000068800700280ED5FFE7FFF730
:1012300019FB0399401A41F28931884204D3FFE730
:1012400003208DF81700CCE0E8E7FFE79DF80700E2
:10125000012809D1FFE741F21C01C4F2020108682C
:1012600020F080500860FFE7FFE70498C06900287D
:1012700000F0B380FFE741F20400C4F2020000680E
:1012800000F00C00082800F08280FFE70498C06995
:1012900002285CD1FFE76021C4F2422100200860EF
:1012A000FFF7E0FA0390FFE741F20000C4F202000A
:1012B0000068800100280CD5FFE7FFF7D3FA0399F7
:1012C000401A032804D3FFE703208DF8170088E0B5
:1012D000EAE70498006AB0F5803F0CD1FFE741F2DD
:1012E0000401C4F20201086820F40030049A9268F4
:1012F00010430860FFE741F20401C4F202010868EC
:1013000020F47410049B1A6A5B6A1A431043086045
:101310006021C4F2422101200860FFF7A3FA039084
:10132000FFE741F20000C4F20200006880010028DB
:101330000CD4FFE7FFF796FA0399401A032804D369
:10134000FFE703208DF817004BE0EAE71EE060217D
:10135000C4F2422100200860FFF784FA0390FFE7FF
:1013600041F20000C4F202000068800100280CD5A0
:10137000FFE7FFF777FA0399401A032804D3FFE742
:1013800003208DF817002CE0EAE7FFE724E004983B
:10139000C069012804D1FFE701208DF8170020E083
:1013A00041F20400C4F2020000680290029800F4C6
:1013B00080300499096A884208D1FFE7029800F456
:1013C00070100499496A884204D0FFE701208DF823
:1013D000170006E0FFE7FFE7FFE700208DF81700A2
:1013E000FFE79DF8170006B080BD000081B00090B7
:1013F000009890F8510001B07047000080B584B0AB
:101400000290029820B9FFE701208DF80F006DE0EF
:101410000298406A60B9FFE702984068B0F5827FA1
:1014200001D1FFE703E002990020C861FFE705E072
:1014300002990020086102994861FFE702990020A3
:101440008862029890F8510040B9FFE702990020A5
:1014500081F85000029800F04DF8FFE70299022051
:1014600081F8510002980168086820F04000086087
:10147000029A019211685068D2F808C0D36800F44B
:1014800082700CF4044C604403F400631844136944
:1014900003F002031844536903F0010318449369ED
:1014A00003F400731844D36903F038031844136A33
:1014B00003F080031843926A02F40052104308605C
:1014C0000299488B00F0040009684860029801689E
:1014D000C86920F40060C861029900204865029A3A
:1014E000012182F851108DF80F00FFE79DF80F00E1
:1014F00004B080BD80B58AB00990002008900790A4
:10150000069005900998006843F20001C4F20101B9
:10151000884237D1FFE7FFE741F21800C4F202002A
:10152000016841F480510160006800F4805004902B
:101530000498FFE7FFE741F21800C4F202000168D7
:1015400041F004010160006800F00400039003987A
:10155000FFE7A0200590022006900320089040F6A7
:101560000000C4F20100019005A90291FEF7BEFF40
:101570000198029940220592002206920792FEF7F6
:10158000B5FFFFE70AB080BD80B588B00690059131
:10159000ADF81220039300208DF8070006984068EC
:1015A000B0F5827F16D1FFE70698806890B9FFE713
:1015B0000699042081F851000698059ABDF812306A
:1015C0000399EC46CCF80010114600F037FA8DF87C
:1015D0001F00EDE0FFE7069890F85000012804D1C5
:1015E000FFE702208DF81F00E2E00699012081F854
:1015F0005000FFE7FFE7FFF735F90290069890F8F3
:101600005100012804D0FFE702208DF80700C0E058
:10161000059820B1FFE7BDF8120020B9FFE70120CF
:101620008DF80700B5E00699042081F8510006996D
:10163000002048650599069A9163BDF81210069A34
:101640009187BDF81210069AD1870699086306990A
:1016500088860699C886069908640699486406989B
:101660008068B0F5004F0DD1FFE706980168086863
:1016700020F04000086006980168086820F4804067
:101680000860FFE706980068006800F04000402806
:1016900007D0FFE706980168086840F0400008603E
:1016A000FFE70698C06880BBFFE7FFE70698C08F9A
:1016B00050B3FFE7069800688068C00778B1FFE77D
:1016C00006980068007B0699896B08700699886BFC
:1016D000013088630699C88F0138C88713E0FFF787
:1016E000C1F80299401A0399884204D3FFE703988E
:1016F000013018B9FFE7039820B9FFE703208DF800
:10170000070046E0FFE7D1E72FE0FFE70698C08F2C
:1017100050B3FFE7069800688068C00778B1FFE71C
:1017200006980068C0680699896B08800699886BDE
:10173000023088630699C88F0138C88713E0FFF725
:1017400091F80299401A0399884204D3FFE703985D
:10175000013018B9FFE7039820B9FFE703208DF89F
:10176000070016E0FFE7D1E7FFE706980399029A22
:1017700001F052FC20B1FFE7069920204865FFE701
:101780000698406D20B1FFE701208DF80700FFE7C4
:10179000FFE70699012081F85100FFE70699002034
:1017A00081F85000FFE79DF807008DF81F00FFE764
:1017B0009DF81F0008B080BD80B588B006900591E7
:1017C000ADF81220039300208DF80700FFE706987C
:1017D00090F85000012804D1FFE702208DF81F0087
:1017E00028E10699012081F85000FFE7FFE7FFF7A5
:1017F00039F80290BDF81200ADF80400069890F890
:101800005100012804D0FFE702208DF8070002E113
:10181000059820B1FFE7BDF8120020B9FFE70120CD
:101820008DF80700F7E00699032081F8510006992A
:10183000002048650599069A1163BDF81210069AB2
:101840009186BDF81210069AD1860699886306998A
:1018500088870699C8870699486406990864069897
:101860008068B0F5004F0DD1FFE706980168086861
:1018700020F04000086006980168086840F4804045
:101880000860FFE706980068006800F04000402804
:1018900007D0FFE706980168086840F0400008603C
:1018A000FFE70698C068B0F5006F47D1FFE70698DC
:1018B000406828B1FFE7BDF8040001280ED1FFE71A
:1018C00006980168006B0088C8600699086B0230B2
:1018D00008630699C88E0138C886FFE7FFE70698B7
:1018E000C08E50B3FFE70698006880688007002824
:1018F0000ED5FFE706980168006B0088C86006995E
:10190000086B023008630699C88E0138C88613E058
:10191000FEF7A8FF0299401A0399884204D3FFE713
:101920000398013018B9FFE7039820B9FFE70320B7
:101930008DF807006FE0FFE7D1E746E006984068C2
:1019400028B1FFE7BDF8040001280ED1FFE7069893
:101950000168006B007808730699086B0130086312
:101960000699C88E0138C886FFE7FFE70698C08E43
:1019700050B3FFE7069800688068800700280ED5FE
:10198000FFE706980168006B007808730699086BFA
:10199000013008630699C88E0138C88613E0FEF747
:1019A00061FF0299401A0399884204D3FFE7039824
:1019B000013018B9FFE7039820B9FFE703208DF83D
:1019C000070028E0FFE7D1E7FFE706980399029AAE
:1019D00001F07EFB20B1FFE7069920204865FFE774
:1019E0000698806870B9FFE7FFE70020009006982E
:1019F0000068C068009006980068806800900098B1
:101A0000FFE7FFE70698406D20B1FFE701208DF862
:101A10000700FFE7FFE70699012081F85100FFE783
:101A20000699002081F85000FFE79DF807008DF827
:101A30001F00FFE79DF81F0008B080BD80B58EB085
:101A4000DDF840C00C900B910A92ADF826300120D1
:101A5000059000208DF81300FFE70C9890F85000D7
:101A6000012804D1FFE702208DF8370095E10C9999
:101A7000012081F85000FFE7FFE7FEF7F3FE069034
:101A80000C9890F851008DF81F000C984068089051
:101A9000BDF82600ADF824009DF81F00012812D0E3
:101AA000FFE70898B0F5827F09D1FFE70C988068BE
:101AB00028B9FFE79DF81F00042804D0FFE70220A3
:101AC0008DF813005AE10B9838B1FFE70A9820B15E
:101AD000FFE7BDF8260020B9FFE701208DF81300CD
:101AE0004CE10C9890F85100042805D0FFE70C99C0
:101AF000052081F85100FFE70C99002048650A99FC
:101B00000C9A9163BDF826100C9AD187BDF8261067
:101B10000C9A91870B990C9A1163BDF826100C9AB8
:101B2000D186BDF826100C9A91860C9908640C9900
:101B300048640C980068006800F04000402807D016
:101B4000FFE70C980168086840F040000860FFE774
:101B50000C98C068B0F5006F76D1FFE70C9840682C
:101B600028B1FFE7BDF8240001280ED1FFE70C984B
:101B70000168006B0088C8600C99086B023008632C
:101B80000C99C88E0138C886FFE7FFE70C98C18E14
:101B90000120029039B9FFE70C98C08F002818BFC8
:101BA00001200290FFE70298C00700284BD0FFE712
:101BB0000C98006880688007002818D5FFE70C980B
:101BC000C08EA0B1FFE70598012810D1FFE70C985F
:101BD0000168006B0088C8600C99086B02300863CC
:101BE0000C99C88E0138C88600200590FFE70C9834
:101BF00000688068C007A8B1FFE70C98C08F88B163
:101C0000FFE70C980068C0680C99896B08800C99F4
:101C1000886B023088630C99C88F0138C88701200F
:101C20000590FFE7FEF71EFE0699401A10998842BC
:101C300008D3FFE71098013020B1FFE703208DF8AB
:101C400013009BE0A2E778E00C98406828B1FFE71A
:101C5000BDF8240001280ED1FFE70C980168006B45
:101C6000007808730C99086B013008630C99C88ED2
:101C70000138C886FFE7FFE70C98C18E012001906C
:101C800039B9FFE70C98C08F002818BF01200190D8
:101C9000FFE70198C00700284ED0FFE70C980068C6
:101CA00080688007002818D5FFE70C98C08EA0B187
:101CB000FFE70598012810D1FFE70C980168006B39
:101CC000007808730C99086B013008630C99C88E72
:101CD0000138C88600200590FFE70C9800688068EE
:101CE000C007A8B1FFE70C98C08F88B1FFE70C9838
:101CF0000068C0680C99896B08700C99886B01307A
:101D000088630C99C88F0138C88701200590FFE7C8
:101D1000FEF7A8FD0699401A1099884204D3FFE700
:101D20001098013018B9FFE7109820B9FFE7032099
:101D30008DF8130022E09FE7FFE70C981099069AB0
:101D400001F0C6F938B1FFE701208DF813000C99B6
:101D50002020486512E00C98806870B9FFE7FFE723
:101D6000002003900C980068C06803900C980068ED
:101D7000806803900398FFE7FFE7FFE70C990120D5
:101D800081F85100FFE70C99002081F85000FFE72F
:101D90009DF813008DF83700FFE79DF837000EB06F
:101DA00080BD000080B582B00190019801F04AFA30
:101DB00002B080BD82B00190ADF8021002B0704751
:101DC00080B582B001900198006843F60001C4F22A
:101DD000010188420CD1FFE740F2D000C2F20000BE
:101DE00040F24121C2F200010F2200F0FBFAFFE7AE
:101DF00002B080BD80B588B0079007980068006881
:101E0000069007980068C0680590079800684069C8
:101E10000490002003900290069800F00F000390B9
:101E2000039888B9FFE79DF81800800600280AD5B6
:101E3000FFE79DF814008006002804D5FFE7079807
:101E400001F0AEFA76E1FFE70398002800F0B480D5
:101E5000FFE79DF81000C00738B9FFE7BDF8140090
:101E600010F4907F00F0A880FFE79DF81800C007ED
:101E700058B1FFE79DF81500C00730B1FFE707999B
:101E8000086C40F001000864FFE79DF81800400767
:101E900000280BD5FFE79DF81000C00730B1FFE721
:101EA0000799086C40F002000864FFE79DF81800ED
:101EB000800700280BD5FFE79DF81000C00730B160
:101EC000FFE70799086C40F004000864FFE79DF8FD
:101ED00018000007002811D5FFE79DF814008006C0
:101EE000002805D4FFE79DF81000C00730B1FFE7D8
:101EF0000799086C40F008000864FFE70798006C39
:101F0000002858D0FFE79DF81800800600280AD561
:101F1000FFE79DF814008006002804D5FFE7079826
:101F200001F03EFAFFE7079800684069C0F38010AF
:101F300002900798006C0007002803D4FFE702987E
:101F400088B3FFE7079801F0F3F907980068406944
:101F50004006002822D5FFE707980168486920F06D
:101F6000400048610798806B98B1FFE70798816B44
:101F700043F21130C0F6000048630798806BFEF70B
:101F8000D7F928B1FFE70798806B416B8847FFE7D7
:101F900003E00798FFF714FFFFE703E00798FFF758
:101FA0000FFFFFE706E00798FFF70AFF07990020F9
:101FB0000864FFE7FFE7BDE00798006B012840F0E9
:101FC0009980FFE79DF81800C006002840F1928034
:101FD000FFE79DF81400C006002840F18B80FFE762
:101FE000FFE70020019007980068006801900798BB
:101FF0000068406801900198FFE707980068406911
:102000004006002848D5FFE70798806B00684068C5
:10201000ADF80200BDF80200E8B3FFE7BDF802002A
:102020000799898D884236DAFFE7BDF802000799E3
:10203000C8850798806B8069202824D0FFE707981F
:102040000168C86820F48070C86007980168486912
:1020500020F00100486107980168486920F04000BD
:1020600048610799202081F83E0007990020086305
:1020700007980168C86820F01000C8600798806B56
:10208000FEF718F9FFE70798818DC28D891A89B28A
:10209000FFF790FEFFE74DE00799888DC98D401A44
:1020A000ADF800000798C08D18B3FFE7BDF8000039
:1020B000F8B1FFE707980168C86820F49070C8601D
:1020C00007980168486920F00100486107992020BD
:1020D00081F83E0007990020086307980168C868E6
:1020E00020F01000C8600798BDF80010FFF762FEEE
:1020F000FFE71FE09DF81800000600280AD5FFE75B
:102100009DF814000006002804D5FFE7079801F0A9
:102110007DFA0FE09DF81800400600280AD5FFE779
:102120009DF814004006002804D5FFE7079801F049
:1021300023F9FFE708B080BD80B582B00090009819
:1021400020B9FFE701208DF807003EE00098806984
:1021500008B1FFE700E0FFE7009890F83D0040B9C4
:10216000FFE70099002081F83C00009800F032F869
:10217000FFE70099242081F83D0000980168C868B5
:1021800020F40050C860009801F0B0F90098016890
:10219000086920F49040086100980168486920F0BF
:1021A0002A00486100980168C86840F40050C8607F
:1021B000009900200864009A202182F83D10009ABE
:1021C00082F83E108DF80700FFE79DF8070002B087
:1021D00080BD000080B58CB00B9000200A90099063
:1021E000089007900B98006843F60001C4F20101C3
:1021F000884243D1FFE7FFE741F21800C4F2020032
:10220000016841F480410160006800F4804006905C
:102210000698FFE7FFE741F21800C4F202000168E8
:1022200041F004010160006800F004000590059889
:10223000FFE74FF4007007900220089003200A90F7
:1022400040F60000C4F20100019007A90291FEF7D8
:102250004DF9019802994FF480620792002203928F
:1022600008920992FEF742F9039A25200490012171
:10227000FEF794FB0498FEF787FBFFE70CB080BDE8
:1022800080B58AB008900791ADF81A200593002018
:102290000290089890F83E00202840F09B80FFE7CD
:1022A000079820B1FFE7BDF81A0020B9FFE7012029
:1022B0008DF8270092E0FFE7089890F83C0001288D
:1022C00004D1FFE702208DF8270087E0089901205C
:1022D00081F83C00FFE7FFE7089900200864089AAE
:1022E000222182F83E1008990863FEF7BBFA02909B
:1022F000BDF81A0008998885BDF81A000899C885A4
:1023000008988068B0F5805F09D1FFE708980069F8
:1023100028B9FFE7002004900798039004E007988D
:10232000049000200390FFE7FFE70899002081F860
:102330003C00FFE7FFE70898C08D002842D0FFE788
:102340000898029B05996A4611602021002201F03D
:10235000A7F920B1FFE703208DF827003EE004989D
:1023600058B9FFE70898006840686FF35F20039949
:1023700008800398023003901FE008988068B0F549
:10238000805F08D0FFE70898806850B9FFE7089899
:10239000006930B9FFE70898006840680499087040
:1023A00007E008980068406800F07F000499087012
:1023B000FFE7049801300490FFE70899C88D0138C1
:1023C000C885B8E70899202081F83E0000208DF8E4
:1023D000270003E002208DF82700FFE79DF8270083
:1023E0000AB080BD80B584B002900191ADF80220A2
:1023F000029890F83E00202828D1FFE7019820B1EC
:10240000FFE7BDF8020020B9FFE701208DF80F00BB
:1024100020E0FFE7029890F83C00012804D1FFE794
:1024200002208DF80F0015E00299012081F83C0090
:10243000FFE7FFE702990020086302980199BDF8C1
:10244000022001F0B1F88DF80F0003E002208DF8B2
:102450000F00FFE79DF80F0004B080BD80B582B08B
:1024600001900198006843F60001C4F2010188421E
:102470002FD1FFE740F24120C2F20000807BFF280D
:1024800007D1FFE740F27401C2F200010120087099
:1024900013E0FFE740F2D000C2F200000DF10301AB
:1024A00001220A23FFF7ECFE8DF80200FFE79DF8FA
:1024B00002000328EED1FFE7FFE740F2D000C2F2AE
:1024C000000040F24121C2F200010F22FFF78AFF13
:1024D000FFE702B080BD000080B58AB00890079188
:1024E000ADF81A20059300200290089890F83D005E
:1024F000202840F09080FFE7079820B1FFE7BDF863
:102500001A0020B9FFE701208DF8270087E0FFE7D8
:10251000089890F83C00012804D1FFE702208DF8CC
:1025200027007CE00899012081F83C00FFE7FFE7E5
:102530000899002008640899212081F83D00FEF7E1
:1025400091F90290BDF81A0008998884BDF81A0024
:102550000899C88408988068B0F5805F09D1FFE7C2
:102560000898006928B9FFE70020049007980390B5
:1025700004E00798049000200390FFE7FFE7089924
:10258000002081F83C00FFE7FFE70898C08C58B3B3
:10259000FFE70898029B05996A4611608021002296
:1025A00001F07EF820B1FFE703208DF8270036E028
:1025B000049858B9FFE7039800886FF35F200899E3
:1025C0000968486003980230039008E00498007896
:1025D000089909684860049801300490FFE7089959
:1025E000C88C0138C884D0E70898029B05996A46D0
:1025F00011604021002201F053F820B1FFE70320D1
:102600008DF827000BE00899202081F83D0000207C
:102610008DF8270003E002208DF82700FFE79DF8E2
:1026200027000AB080BD000081B0009001B0704763
:10263000FFE7FEE780B584B003908DF80B100192A0
:102640008DF803309DF80B0040F080008DF80200FB
:102650000399086889880022FEF7ECF803988069DE
:102660000DF1020101224FF4FA63FFF7A5F8FFE72D
:1026700003988069FEF7BAFE012801D0FFE7F7E76B
:102680000398806901999DF803204FF4FA63FFF7DE
:1026900093F8FFE703988069FEF7A8FE012801D0B0
:1026A000FFE7F7E70399086889880122FEF7C2F877
:1026B00004B080BD80B584B00390029103980121DD
:1026C00000F008F98DF807009DF807008DF8060066
:1026D000029850B9FFE79DF8070000F0F8008DF868
:1026E000060003990020C8613FE0029801280BD141
:1026F000FFE79DF8070000F0F80001308DF80600B4
:1027000003990120C8612FE0029803280BD1FFE74D
:102710009DF8070000F0F80003308DF806000399DB
:102720000320C8611FE0029805280BD1FFE79DF840
:10273000070000F0F80005308DF806000399052029
:10274000C8610FE0029806280BD1FFE79DF807004B
:1027500000F0F80006308DF8060003990620C861E5
:10276000FFE7FFE7FFE7FFE7FFE703989DF8062095
:10277000012100F0C5FA04B080BD000080B588B02A
:102780000690069800F0A0F8002800F09480FFE77B
:10279000069800210191FFF78DFF0A200490FDF7B4
:1027A00055FE06980121039100F094F80146049823
:1027B0008DF81610FDF74AFE03999DF8160040F0BB
:1027C00080008DF8170006989DF8172000F098FA01
:1027D0006420FDF73BFE0698016A00F045F9069873
:1027E00090F82A1000F0C4F9069890F82B1000F029
:1027F0006DF906980C21232200F082FA069800F069
:10280000F9F9069890F8241000F0C2F906981F21F3
:10281000FF2200F075FA01988DF81700069991F8DB
:10282000250091F82610000100EB41008DF81700FB
:1028300006989DF817201D2100F062FA069890F87E
:102840002920202100F05CFA069890F82820212108
:1028500000F056FA06984021029100F03BF80299E8
:102860008DF816009DF8160040F03F008DF8170017
:1028700006989DF8172000F043FA03990698FFF791
:1028800019FF03990498069AD161FDF7DFFD0698B8
:10289000422100F01FF88DF816009DF8160012284E
:1028A00004D1FFE7C820ADF81E0009E04FF4CA705C
:1028B000ADF81E0004E040F2F710ADF81E00FFE78F
:1028C000BDF81E0008B080BD81B00090012001B0AD
:1028D0007047000080B584B003908DF80B109DF810
:1028E0000B0000F07F008DF8090003986946012273
:1028F0000A600DF109010DF10A0300F005F89DF8D9
:102900000A0004B080BD000080B586B084460898F7
:10291000CDF814C00491ADF80E200293ADF8060076
:102920000599086889880022FDF784FF0598806969
:102930000499BDF80E204FF4FA63FEF73DFFFFE760
:1029400005988069FEF752FD012801D0FFE7F7E7FF
:10295000059880690299BDF806204FF4FA63FEF7E6
:1029600013FEFFE705988069FEF740FD012801D0BE
:10297000FFE7F7E70599086889880122FDF75AFF04
:1029800006B080BD80B586B0059004918DF80F200B
:1029900000208DF80C000290FFE702989DF80F10C0
:1029A000884209DAFFE70499029A00208854FFE779
:1029B000029801300290F0E705980121FFF77AFEB6
:1029C00005981221FFF786FF8DF80E009DF80E0086
:1029D000400600283FD5FFE705981221FF2200F0AE
:1029E0008FF905981321FFF775FF8DF80D000598F5
:1029F0001021FFF76FFF8DF80E0005989DF80E204F
:102A00000D2100F07DF99DF80F009DF80D10884212
:102A100004DBFFE79DF80D00009003E09DF80F0038
:102A20000090FFE700988DF80C0000200190FFE770
:102A300001989DF80C1088420CDAFFE705980021F8
:102A4000FFF748FF0499019A8854FFE70198013085
:102A50000190EDE7FFE705980521FFF72BFE9DF8B4
:102A60000C0006B080BD000080B586B005900491D2
:102A70000498C00440110290BDF80A008DF80F00C0
:102A800005989DF80F20062100F03AF905200190E5
:102A9000FDF7DCFC0298000A8DF80F0005989DF800
:102AA0000F20072100F02CF90198FDF7CFFC0298C8
:102AB0008DF80F0005989DF80F20082100F020F9EF
:102AC0000198FDF7C3FC06B080BD000080B582B060
:102AD00001908DF8031000208DF802009DF803008E
:102AE0002C2804DCFFE72D208DF80300FFE79DF87C
:102AF0000300F12804DBFFE7F0208DF80300FFE777
:102B00009DF8030078280FDCFFE79DF803002D38BF
:102B100046F26761C6F2666180FB0101480800EB7E
:102B2000D1708DF8020012E09DF80300F0280DDC52
:102B3000FFE79DF803001E304CF6CD41CCF6CC41AA
:102B4000A0FB0110C0088DF80200FFE7FFE79DF829
:102B5000020020308DF8020001989DF802200B2120
:102B600000F0CEF80A20FDF771FC02B080BD000035
:102B700080B582B001908DF8031001989DF8032074
:102B8000092100F0BDF80A20FDF760FC02B080BD0D
:102B900080B586B00590049104980D2803DBFFE70B
:102BA0000C200490FFE70498062803DCFFE70720C9
:102BB0000490FFE705981E210191FFF78BFE8DF829
:102BC0000E000A200290FDF741FC0199049A9DF83D
:102BD0000E0000F00F0040EA02108DF80F0005987B
:102BE0009DF80F2000F08CF80298FDF72FFC06B03E
:102BF00080BD000080B584B0039003981E21019130
:102C0000FFF768FE01998DF80B009DF80B0040F06E
:102C100007008DF80A0003989DF80A2000F070F86C
:102C20000A20FDF713FC04B080BD000080B582B01F
:102C3000019001980521FFF73DFD02B080BD000025
:102C400080B586B0049003918DF80B20ADF8083064
:102C50000498C069009004980121FFF72BFD0498A7
:102C60000E21FFF737FE8DF8070004989DF8072026
:102C70000D2100F045F804989DF80B20222100F06A
:102C80003FF80498039A9DF80B300021FFF7D2FC1F
:102C900004980321FFF70EFDFFE704981221FFF7C8
:102CA00019FE8DF807009DF80700000700280DD5D4
:102CB000FFE704981221FF2200F022F804980099FF
:102CC000FFF7F8FC01208DF8170014E0BDF80800AC
:102CD0000138ADF80800000440B9FFE704980099F6
:102CE000FFF7E8FC00208DF8170004E0FFE7012063
:102CF000FDF7ACFBD1E79DF8170006B080BD0000E2
:102D000080B584B003908DF80B108DF80A209DF8E3
:102D10000B0040F080008DF808009DF80A008DF847
:102D200009000398694601220A6002A90DF109030E
:102D300000F002F804B080BD80B586B084460898E3
:102D4000CDF814C00491ADF80E200293ADF8060042
:102D50000599086889880022FDF76CFD059880694F
:102D60000499BDF80E204FF4FA63FEF725FDFFE746
:102D700005988069FEF73AFB012801D0FFE7F7E7E5
:102D8000059880690299BDF806204FF4FA63FEF7B2
:102D900013FDFFE705988069FEF728FB012801D0A5
:102DA000FFE7F7E70599086889880122FDF742FDEA
:102DB00006B080BD80B592B00020119010900F90A9
:102DC0000E90FFE741F21800C4F20200016841F0E2
:102DD00010010160006800F010000D900D98FFE7F1
:102DE000FFE741F21800C4F20200016841F020013F
:102DF0000160006800F020000C900C98FFE7FFE7EE
:102E000041F21800C4F20200016841F004010160BF
:102E1000006800F004000B900B98FFE7FFE741F219
:102E20001800C4F20200016841F008010160006866
:102E300000F008000A900A98FFE741F20000C4F28F
:102E4000010002904FF40051019100220892FDF719
:102E5000F1FC40F60040C4F2010006900321059108
:102E600001220392FDF7E6FC019B0298039A089960
:102E70000E930F9210910221049111910EA90791C6
:102E8000FDF734FBDDF80CC0049A06980799089BFF
:102E9000DDF814E0CDF838E0CDF83CC01093119285
:102EA000FDF724FB06980799089A4FF480630E9368
:102EB0000023C1F211030F931092FDF717FB089A3C
:102EC000282009901146FDF769FD0998FDF75CFD82
:102ED00012B080BD80B582B040F27800C2F200002E
:102EE000019043F20001C4F2010101604FF48271CC
:102EF000416000218160C160016141614FF4007255
:102F000082611022C2610162416281620A21C16252
:102F1000FEF774FA18B1FFE7FDF7C4F9FFE702B056
:102F200080BD000080B582B040F2D000C2F2000047
:102F3000019043F60001C4F2010101604FF4165103
:102F4000416000218160C16001610C2242618161A8
:102F5000C161FFF7F1F818B1FFE7FDF7A3F9FFE74B
:102F600002B080BDFFE7FEE7FFE7FEE788B007900D
:102F700006910592079800F0070004900498C0F1AC
:102F80000700052803D3FFE70420019004E004981C
:102F9000C0F107000190FFE7019803900498043006
:102FA000062803D8FFE70020009003E004980338C8
:102FB0000090FFE70098029006980399012202FA18
:102FC00001F101390840029B984005999A40013A65
:102FD0001140084308B070477047000082B001906C
:102FE000019840F20001C2F200010968C90844F6E4
:102FF000D352C1F26202A1FB022189094843009029
:10300000FFE700BFFFE70098411E00910028F8D1BC
:10301000FFE702B07047000080B586B004900391CE
:10302000029204984068B0F5827F13D1FFE70498BC
:103030008068B0F5004F06D0FFE704988068B0F5CF
:10304000806F07D1FFE704980168086820F040000E
:103050000860FFE704984068B0F5827F1BD1FFE766
:1030600004988068B0F5806F15D1FFE70498039B42
:1030700002996A4611600121002200F04BF848B124
:10308000FFE70499486D40F02000486503208DF863
:10309000170019E014E00498039B02996A46116036
:1030A0008021002200F036F848B1FFE70499486D0E
:1030B00040F02000486503208DF8170004E0FFE78A
:1030C00000208DF81700FFE79DF8170006B080BDBF
:1030D00080B586B00490039102920498039B0299F4
:1030E0006A4611608021002200F014F848B1FFE721
:1030F0000499486D40F02000486503208DF81700C2
:1031000003E000208DF81700FFE79DF8170006B0D8
:1031100080BD000080B58AB0DDF830C0089007910E
:103120008DF81B20059305980190FDF79BFB024647
:1031300001980C99891A08440390FDF793FB0290BB
:10314000039840F20001C2F200010968C1F3CB31DB
:1031500048430490FFE70898006880680799084092
:10316000401AB0FA80F040099DF81B1088425ED0EA
:10317000FFE705980130002858D0FFE7FDF772FB04
:103180000299401A0399884204D2FFE70398002865
:1031900042D1FFE708980168486820F0E0004860E5
:1031A00008984068B0F5827F13D1FFE708988068DF
:1031B000B0F5004F06D0FFE708988068B0F5806F43
:1031C00007D1FFE708980168086820F04000086010
:1031D000FFE70898806AB0F5005F0FD1FFE7FFE7CF
:1031E00008980168086820F4005008600898016891
:1031F000086840F400500860FFE7FFE708990120E5
:1032000081F85100FFE70899002081F85000FFE79E
:1032100003208DF827000EE0049818B9FFE700207E
:103220000390FFE7049801380490FFE793E700203C
:103230008DF82700FFE79DF827000AB080BD000049
:103240007047000080B582B0009000980138B0F15E
:10325000807F03D3FFE70120019019E00098013837
:103260004EF21401CEF2000108604FF0FF300F2142
:1032700000F08EFA4EF21801CEF200010020086034
:103280004EF21002CEF20002072111600190FFE71A
:10329000019802B080BD000080B5FDF7E9FA80BD5D
:1032A00080B590B006A800902821FCF78DFF00980B
:1032B0000023059304930393029301930122069242
:1032C0004FF48031079108930A9202220D920E91D9
:1032D0004FF4E0110F91FDF74BFD18B1FFE7FCF73C
:1032E000E1FFFFE70F2001900221029100200390EF
:1032F0004FF480620492059001A8FDF771FB18B1AC
:10330000FFE7FCF7CFFFFFE710B080BD704700007C
:1033100080B582B001900198406A00900099002029
:10332000C8850099C8840098FEF74AFD02B080BDA8
:1033300081B0009000980168C86820F49070C8605F
:1033400000980168486920F0010048610098006B0E
:10335000012807D1FFE700980168C86820F0100035
:10336000C860FFE70099202081F83E000099002006
:10337000086301B07047000080B582B001900198E9
:103380000168C86820F04000C8600199202081F8D9
:103390003D000198FFF748F9002002B080BD000011
:1033A00080B586B00490049890F83E00222840F042
:1033B0009480FFE704988068B0F5805F15D1FFE73F
:1033C0000498006988B9FFE7002003900498806A98
:1033D00002900498006840686FF35F2002990880AB
:1033E0000499886A0230886225E00498806A039014
:1033F0000020029004988068B0F5805F08D0FFE755
:103400000498806850B9FFE70498006930B9FFE775
:103410000498006840680399087007E00498006801
:10342000406800F07F0003990870FFE70499886AFC
:1034300001308862FFE70499C88D0138C88500040F
:10344000002846D1FFE704980168C86820F02000F2
:10345000C86004980168C86820F48070C860049847
:103460000168486920F0010048610499202081F832
:103470003E000498006B012823D1FFE70499002047
:10348000086304980168C86820F01000C8600498B8
:1034900000680068C00600280ED5FFE7FFE700209F
:1034A00001900498006800680190049800684068E2
:1034B00001900198FFE7FFE70498818DFEF77AFC01
:1034C00003E00498FEF7CAFFFFE700208DF817001D
:1034D00007E000208DF8170003E002208DF81700A8
:1034E000FFE79DF8170006B080BD000080B584B0EE
:1034F000039003980068006920F44050039A116813
:10350000D26810430861039988680A6949691043C1
:103510000843029003980068C06841F20C61884338
:103520000299084303990968C860039800684069D4
:1035300020F44070039A116892691043486103981F
:10354000006843F60001C4F20101884204D1FFE79C
:10355000FDF78AFB019003E0FDF774FB0190FFE7A4
:10356000019819214843039A116852689200B0FBF0
:10357000F2FC48F21F52C5F2EB12ACFB02304309D9
:10358000642003FB10CC322000EB0C10A0FB0202E5
:10359000F02000EA521000EB0310C2F34312104473
:1035A000886004B080BD000083B002900191ADF846
:1035B0000220019802998862BDF80200029988856C
:1035C000BDF802000299C88502990020086402999A
:1035D000222081F83E00FFE70299002081F83C009C
:1035E000FFE702980168C86840F48070C8600298DC
:1035F0000168486940F00100486102980168C868A4
:1036000040F02000C860002003B0704783B00190F4
:10361000019890F83D0021283AD1FFE70198806891
:10362000B0F5805F13D1FFE70198006978B9FFE733
:103630000198006A0090009800886FF35F2001995C
:10364000096848600199086A0230086208E0019A36
:10365000106A411C11620078019909684860FFE70F
:103660000199C88C0138C884000468B9FFE7019843
:103670000168C86820F08000C86001980168C868C7
:1036800040F04000C860FFE700208DF80B0003E029
:1036900002208DF80B00FFE79DF80B0003B0704788
:1036A00080B586B0DDF820C0049003918DF80B2022
:1036B0000193FFE704980068006803990840401AE6
:1036C000B0FA80F040099DF80B1088422ED1FFE738
:1036D0000898013048B3FFE7089840B1FFE7FDF7CD
:1036E000C1F80199401A089988421DD9FFE704984A
:1036F0000168C86820F4D070C860049801684869FF
:1037000020F0010048610499202081F83D000499CF
:1037100081F83E00FFE70499002081F83C00FFE7B4
:1037200003208DF8170005E0FFE7C3E700208DF8C0
:103730001700FFE79DF8170006B080BD80B540F286
:10374000D000C2F20000FEF755FB80BDFFE7FEE7A8
:1037500081B08DF803009DF9030000280ED4FFE727
:103760009DF9031001F01F02012090404A094EF21A
:103770000011CEF2000141F82200FFE701B07047CE
:103780004EF60C50CEF200000068C0F302207047E5
:1037900082B08DF8070000919DF9070000280AD437
:1037A000FFE7009800019DF907104EF20042CEF2AB
:1037B000000288540BE0009800019DF8071001F00A
:1037C0000F014EF61452CEF200028854FFE702B009
:1037D0007047000083B00290029800F0070000904C
:1037E0004EF60C51CEF200010868019001984FF698
:1037F000FF02104001900198009A40EA0220002246
:10380000C0F2FA52104301900198086003B070476B
:1038100010B598B000201790FDF738F8FFF740FD7D
:10382000FFF7C8FAFFF756FBFFF77CFB40F2D0002A
:10383000C2F2000040F24121C2F200010F22FEF765
:10384000D1FD07A800F05CF90799089A099BDDF8FB
:1038500028C0DDF82CE00C9C40F21410C2F20000ED
:1038600006904461C0F810E0C0F80CC0836042606C
:1038700001600D990E9A0F9BDDF840C0DDF844E021
:10388000C0F828E0C0F824C00362C261816140F63C
:103890000041C4F2010101600122828081600222A4
:1038A000828101614FF48061818240F27801C2F22D
:1038B00000018161FEF762FFC82807D1FFE740F2EF
:1038C0007001C2F2000101200870FFE740F21410FD
:1038D000C2F20000FFF7AAF9FCF7C4FF1390FFE75C
:1038E00040F27300C2F20000007801285ED1FFE7C9
:1038F00040F27301C2F200010020087040F214107F
:10390000C2F2000040F24111C2F200010591802292
:10391000FFF738F80146059840F24012C2F2000263
:1039200011700078012840D1FFE740F24110C2F247
:1039300000004078FF2807D1FFE740F27201C2F291
:103940000001002008702FE040F25521C2F2000172
:103950000391FF20087040F24110C2F20000049071
:1039600042784A7082788A70C278CA7002790A7185
:1039700042794A7182798A71C279CA71027A0A726D
:10398000407A487240F2D000C2F200000A224FF49E
:10399000FA73FEF7A1FD41F20000C4F201004FF4FA
:1039A0000051FCF733FFFFE7FFE7FFE740F2740049
:1039B000C2F20000007801284FD1FFE740F2740105
:1039C000C2F200010020087040F24120C2F2000063
:1039D000807BFF2840D1FFE740F2C111C2F2000115
:1039E0000091012002900870487040F24120C2F21C
:1039F0000000019002788A704278CA7082780A7159
:103A0000C2784A7102798A714279CA7182790A72DE
:103A1000C2794A72027A8A72427ACA72827A0A73C6
:103A2000C27A4A73027B8A73407BC87340F21410D7
:103A3000C2F2000010224FF42F73FFF701F9019A30
:103A400002980021917340F27201C2F200010870E5
:103A5000FCF708FF1290FFE7FFE740F27200C2F2A6
:103A60000000007801281DD1FFE7FCF7FBFE12994A
:103A7000401AB0F5FA7F14D3FFE740F27201C2F2A8
:103A800000010020087040F21410C2F2000040F261
:103A9000C111C2F2000110224FF42F73FFF7D0F8CA
:103AA000FFE7FFE7FCF7DEFE1399401AB0F5FA6F67
:103AB00024D3FFE7FCF7D6FE139041F20000C4F2D6
:103AC00001004FF40051FCF7A1FE40F2C111C2F217
:103AD0000001012008700020487040F21410C2F26A
:103AE000000002224FF49673FFF7AAF840F271012A
:103AF000C2F20001087801300870FFE7F0E600002C
:103B0000014640F2B1100862072081F8240081F8D4
:103B10002500012081F82600FF2081F82A0064207A
:103B200081F82B0008200885704700000000000085
:103B3000000001020304060708090000000001025A
:103B400003040000683B0008000000201000000093
:103B500028010008783B00081000002060080000E1
:103B600044010008000000000024F40001000000EF
:083B700010000000000000003D
:04000005080000ED02
:00000001FF
